:100000000C94B2480C94E3480C94E3480C94E348F5
:100010000C94E3480C94E3480C94E3480C94E348B4
:100020000C94E3480C94E3480C94E3480C94E348A4
:100030000C94E3480D94D42F0C94E3480C94E348BB
:100040000C94E3480C948BFE0C94E3480C94E34826
:100050000C94E3480C94E3480C9444F20D947A31E8
:100060000C94E3480C94ADBA0C94E3480C94E34828
:100070000C94E3480C94E3480C94E3480C94E34854
:100080000C94E3480C94E3480C94E3480C94E34844
:100090000C94E3480C94E3480C94E3480C94E34834
:1000A0000C94E3480C94E3480C94E3480C94E34824
:1000B0000C94E3480C94E3480C94E3480C94E34814
:1000C0000C94E3480C94E3480C94E3480C94E34804
:1000D0000C94E3480C94E3480C94E3480C94E348F4
:1000E0000C94E348A4F2B3F2CFF2DEF2F8F207F395
:1000F00021F330F34AF34EF356F356013E014C011F
:10010000AC0168014E01580186016C017401AA011D
:100110002E018A019C017A018E013A01A801A001F9
:10012000A2014A013C019C01A40142015201780153
:100130004001700130016201440132019E015E0103
:1001400060013801920136017C01440176015401BD
:100150009801036EDB363D9A9999993DABAAAA2A7C
:100160003E000000803F084AD73B3BCE016E84BC76
:10017000BFFDC12F3D6C74319ABD56833DDA3D0001
:10018000C77F11BED9E4BB4C3E916BAAAABE00004A
:1001900000803F072C7AA5BA6CC590DA3B9365FCCA
:1001A0008BBC53F810FD3C5692834DBD879D3AB6EB
:1001B0003DCBC9BF5BBE73DA0FC93F05A84CCDB2BA
:1001C000D44EB93836A9020C50B9918688083CA69D
:1001D000AAAA2ABE000000803F07634236B79BD818
:1001E000A71A39685618AEBAAB558C1D3CB7CC5718
:1001F00063BD6DEDFD753EF6177231BF00000080E6
:100200003F08000000BE922449123EABAAAA2ABEB3
:10021000CDCCCC4C3E00000080BEABAAAAAA3E00CA
:10022000000000BF000000803F0000000000084107
:1002300078D3BB4387D1133D190E3CC3BD4282AD79
:100240002B3E68EC8276BED98FE1A93E4C80EFFF51
:10025000BE01C4FF7F3F0000000000000D94C52ECA
:100260000D94AA300D94BE300D94224B0D94FB30AA
:100270000D94E2300D94E02E0D94F62E0D941B207B
:100280000D949B300D94002F0D942D310D94B98356
:100290000D942F2F0D94F22E0D9439200D94902053
:1002A0000D94C88F0D94042F0D9419310D940120D5
:1002B0000D949B200D946D540D94E64D0D94CE300D
:1002C0000D94D8300D94B4300D949A3F0D94E04DB8
:1002D0000D9485200D9473400D94CF2E0D94851DA3
:1002E0000D94A0300D945B4C0D94D22E0D940F31D3
:1002F0000D9496300D94D62E0D9405310D9415372E
:100300000D94F13B0D94E83B0D94D34D0D94B52025
:100310000D94DF3B0D94CB2E0D94E23D0D94DA2E1F
:100320000D94F7390D94EC300D94064E0D94F84A67
:100330000D9423310D94892E0D94092F0D94C63000
:100340000D94E82E0D94EE2E0D94FC2E0D9488360F
:100350000D94E42E0D94C12E0D9459204E414E491A
:100360004E495459494E46CDCCCC3D0AD7233C1773
:10037000B7D13877CC2B329595E6241FB14F0A00C0
:100380000020410000C84200401C4620BCBE4CCAB0
:100390001B0E5AAEC59D745344207072696E746909
:1003A0006E672062797465200049737420646572F9
:1003B000205363686C697474656E2067616E7A207F
:1003C0006F62656E3F004F626120776F7A6B6920C4
:1003D000646F6A656368616C7920646F20676F720F
:1003E0006E656A2072616D793F00436172726F734E
:1003F000205A20697A712E2F6465722E20657374DD
:10040000616E20617272696261206D6178696D6FE1
:100410003F00492063617272656C6C69205A2073D9
:10042000696E2F64657320736F6E6F20616C7465E5
:100430007A7A61206D61783F00446F6A656C79203B
:100440006F6261205A20766F7A696B79206B7E68C3
:100450006F726E696D7520646F72617A753F0041CD
:100460007265206C65667420616E642072696768CD
:1004700074205A7E63617272696167657320616C72
:100480006C2075703F00426974746520656E7466F7
:1004900065726E656E20536965207565626572735D
:1004A000746568656E6465732046696C616D656E20
:1004B0007420766F6E206465722044756573652EB6
:1004C000204B6C69636B656E2077656E6E2073617F
:1004D000756265722E00446C612070726177696488
:1004E0006C2E206B616C69627261636A6920707244
:1004F0006F737A65206F637A7973636963206479B7
:10050000737A652E20506F74772E2067757A696B29
:1005100069656D2E004C696D7069617220626F7142
:1005200075696C6C6120706172612063616C6962D5
:10053000726163696F6E2E20436C69636B20637513
:10054000616E646F206163616265732E0050756C2B
:10055000697265206C277567656C6C6F20706572B9
:10056000206C612063616C696272617A696F6E658B
:100570002C20706F69206661726520636C69636B03
:100580002E0050726F2075737065736E6F75206BDF
:10059000616C696272616369206F63697374657409
:1005A000652070726F73696D207469736B6F766FFD
:1005B0007520747279736B752E20506F7476726427
:1005C000746520746C616369746B656D2E00506C8A
:1005D0006561736520636C65616E20746865206E6B
:1005E0006F7A7A6C6520666F722063616C696272E3
:1005F0006174696F6E2E20436C69636B2077686548
:100600006E20646F6E652E004B616C696272696565
:1006100072656E20766F6E2058595A2E204472658E
:1006200068656E205369652064656E204B6E6F703F
:10063000662062697320646572206F62657265204E
:10064000416E7363686C6167206572726569636887
:100650007420776972642E204B6C69636B656E2021
:1006600077656E6E2067616E7A206F62656E2E0010
:100670004B616C69627261636A612058595A2E201D
:1006800050727A656B7265632067616C6B652C20B4
:100690006162792070727A6573756E6163206F7321
:1006A000205A20646F20676F726E796368206B72C6
:1006B000616E636F77656B2E204E616369736E693F
:1006C0006A2C20627920706F7477696572647A6928
:1006D000632E0043616C696272616E646F205859C9
:1006E0005A2E204769726120656C20626F746F6EAC
:1006F000207061726120737562697220656C20637D
:100700006172726F205A20686173746120676F6C28
:100710007065207069657A617320737570657269A0
:100720006F7261732E204465737075657320686104
:100730007A20636C69632E0043616C696272617A2E
:10074000696F6E652058595A2E2052756F74617208
:1007500065206C61206D616E6F706F6C61207065DB
:100760007220616C7A61726520696C2063617272BB
:10077000656C6C6F205A2066696E6F20616C6C2707
:10078000616C74657A7A61206D617373696D612E35
:1007900020436C69636B20706572207465726D69AB
:1007A0006E6172652E004B616C69627261636520D7
:1007B00058595A2E204F746163656E696D20746CB0
:1007C000616369746B6120706F73756E7465205A14
:1007D000206F737520617A206B7E686F726E696D11
:1007E0007520646F72617A752E20506F7476726412
:1007F000746520746C616369746B656D2E00436170
:100800006C6962726174696E672058595A2E205261
:100810006F7461746520746865206B6E6F622074FC
:100820006F206D6F766520746865205A2063617251
:10083000726961676520757020746F207468652027
:10084000656E642073746F70706572732E20436CD4
:1008500069636B207768656E20646F6E652E004B50
:10086000616C696272696572656E20766F6E205A7E
:100870002E2044726568656E205369652064656E3C
:10088000204B6E6F70662062697320646572206F02
:100890006265726520416E7363686C616720657282
:1008A00072656963687420776972642E204B6C6985
:1008B000636B656E2077656E6E2067616E7A206F60
:1008C00062656E2E004B616C69627261636A6120C1
:1008D0005A2E2050727A656B7265632067616C6B6B
:1008E000652C206162792070727A6573756E616320
:1008F000206F73205A20646F20676F726E7963686F
:10090000206B72616E636F77656B2E204E61636939
:10091000736E696A2C20627920706F7477696572D2
:10092000647A69632E0043616C696272616E646F00
:10093000205A2E204769726120656C20626F746FA7
:100940006E207061726120737562697220656C201F
:10095000636172726F205A20686173746120676FDF
:100960006C7065207069657A61732073757065724B
:10097000696F7261732E20446573707565732068AA
:10098000617A20636C69632E0043616C69627261F5
:100990007A696F6E65205A2E2052756F7461726588
:1009A000206C61206D616E6F706F6C61207065727C
:1009B00020616C7A61726520696C20636172726576
:1009C0006C6C6F205A2066696E6F20616C6C2761B9
:1009D0006C74657A7A61206D617373696D612E2024
:1009E000436C69636B20706572207465726D696E0B
:1009F0006172652E004B616C696272616365205A99
:100A00002E204F746163656E696D20746C6163693B
:100A1000746B6120706F73756E7465205A206F73EC
:100A20007520617A206B7E686F726E696D752064C7
:100A30006F72617A752E20506F74767264746520BF
:100A4000746C616369746B656D2E0043616C6962DF
:100A5000726174696E67205A2E20526F74617465DA
:100A600020746865206B6E6F6220746F206D6F76E6
:100A70006520746865205A206361727269616765D8
:100A800020757020746F2074686520656E64207313
:100A9000746F70706572732E20436C69636B20777E
:100AA00068656E20646F6E652E0057617274656EA6
:100AB000206175662041626B7565686C756E672094
:100AC000766F6E2048656174657220756E64204291
:100AD00065642E004F637A656B6977616E69652086
:100AE0006E6120777963686C6F647A656E696520E2
:100AF0006479737A79206920706F646B6C61646BC0
:100B0000692E004573706572616E646F20656E6654
:100B10007269616D69656E746F206465206C612017
:100B200063616D6120792064656C206578747275ED
:100B3000736F722E00496E20617474657361206456
:100B4000656C207261666672656464616D656E7461
:100B50006F2064656C6C612074657374696E6120CC
:100B6000652064656C2070696174746F0043656B07
:100B7000616E69206E61207A63686C61646E757461
:100B80006920747279736B79206120706F646C6F67
:100B90007A6B792E0057616974696E6720666F728F
:100BA000206E6F7A7A6C6520616E642062656420C5
:100BB000636F6F6C696E67004974657261636A6127
:100BC00020005265697465726163696F6E2000521E
:100BD0006569746572617A696F6E65200049746534
:100BE000726163652000497465726174696F6E207B
:100BF0000020766F6E203900207A2039002064654D
:100C0000203900207375203900207A203900206FA8
:100C100066203900566572626573736572756E671A
:100C200020426564204B616C6962726965727075FF
:100C30006E6B7400506F7072617769616D207072B5
:100C40006563797A796A6E6F73632070756E6B7401
:100C500075206B616C6962726163796A6E65676F3A
:100C6000004D656A6F72616E646F2063616D612013
:100C700070756E746F2064652063616C6962726167
:100C800063696F6E0050657266657A696F6E2E20BB
:100C9000696C206C6574746F2070756E746F20645D
:100CA000692063616C696272617A2E005A6C6570AA
:100CB00073756A6920707265736E6F7374206B61EF
:100CC0006C69627261636E69686F20626F6475003F
:100CD000496D70726F76696E67206265642063612A
:100CE0006C6962726174696F6E20706F696E7400F6
:100CF00058595A204B616C696272696572756E67EA
:100D000020696E204F72646E756E672E2053636883
:100D100069656668656974207769726420617574B5
:100D20006F6D617469736368206B6F727269676954
:100D30006572742E004B616C69627261636A612036
:100D400058595A207072617769646C6F77612E20F0
:100D5000536B6F73792062656461206175746F6D88
:100D6000617479637A6E6965207779726F776E61E5
:100D70006E652070727A79206472756B752E0043EF
:100D8000616C6962726163696F6E2058595A2063A1
:100D90006F7272656374612E204C6120696E636CA2
:100DA000696E6163696F6E20736520636F7272652F
:100DB00067697261206175746F6D61746963616DDB
:100DC000656E74652E0043616C696272617A696F49
:100DD0006E2058595A20636F7272657474612E20A8
:100DE0004C6120646973746F7273696F6E652076ED
:100DF0006572726127206175746F6D6174696361DA
:100E00006D656E746520636F6D70656E736174617E
:100E10002E004B616C6962726163652058595A20DB
:100E20007620706F7261646B752E205A6B6F7365DC
:100E30006E692062756465206175746F6D61746997
:100E4000636B79207679726F766E616E6F20707247
:100E500069207469736B752E0058595A2063616C50
:100E60006962726174696F6E20616C6C207269676F
:100E700068742E20536B65772077696C6C206265EF
:100E800020636F72726563746564206175746F6D41
:100E900061746963616C6C792E0058595A204B61FA
:100EA0006C696272696572756E6720696E204F7237
:100EB000646E756E672E20582F59204163687365E4
:100EC0006E2073696E642065747761732073636844
:100ED0006965662E004B616C69627261636A6120AC
:100EE00058595A207072617769646C6F77612E204F
:100EF0004F73696520582F59206C656B6B6F207399
:100F00006B6F736E652E20446F62726120726F6228
:100F10006F7461210043616C6962726163696F6E15
:100F20002058595A20636F7272656374612E204C89
:100F30006F7320656A65732058202F2059206573D0
:100F400074616E206C69676572616D656E74652091
:100F5000696E636C696E61646F732E204275656E95
:100F60002074726162616A6F210043616C69627210
:100F7000617A696F6E2058595A20636F7272657476
:100F800074612E204173736920582F59206C656756
:100F90006765726D656E74652073746F7274692E07
:100FA0002042656E20666174746F21004B616C692C
:100FB00062726163652058595A207620706F7261A1
:100FC000646B752E20582F59206F7379206D6972CC
:100FD0006E65207A6B6F73656E652E20446F62724A
:100FE00061207072616365210058595A2063616CF9
:100FF0006962726174696F6E20616C6C20726967DE
:1010000068742E20582F59206178657320617265AD
:1010100020736C696768746C7920736B657765649D
:101020002E20476F6F64206A6F62210058595A2D35
:101030004B616C696272696572756E67206F6B2EA9
:1010400020582F592D41636873656E2073696E6453
:101050002073656E6B7265636874207A7565696E5E
:10106000616E6465722E20476C7565636B77756E73
:1010700073636821004B616C69627261636A61200D
:1010800058595A206F6B2E204F73696520582F597D
:101090002073612070726F73746F7061646C652E61
:1010A0002047726174756C61636A65210043616CED
:1010B0006962726163696F6E2058595A206F6B2E96
:1010C00020456A657320582F592070657270656ECF
:1010D000646963756C617265732E2046656C696323
:1010E00069746163696F6E6573210043616C696245
:1010F00072617A696F6E652058595A204F4B2E20C5
:10110000476C69206173736920582F5920736F6E83
:101110006F2070657270656E6469636F6C6172696F
:101120002E20436F6D706C696D656E746921004B84
:10113000616C6962726163652058595A207620702B
:101140006F7261646B752E20582F59206F73792050
:101150006A736F75206B6F6C6D652E2047726174BA
:10116000756C756A69210058595A2063616C69620F
:10117000726174696F6E206F6B2E20582F59206139
:10118000786573206172652070657270656E646940
:1011900063756C61722E20436F6E67726174756C3B
:1011A0006174696F6E73210058595A2D4B616C69D7
:1011B0006272696572756E6720756E67656E6175BE
:1011C0002E204C696E6B657220766F726465726555
:1011D00072204B616C69627269657270756E6B74B6
:1011E00020697374207A75207765697420766F7230
:1011F0006E652E004B616C69627261636A61205892
:10120000595A206E6965646F6B6C61646E612E2043
:101210004C6577792070727A65646E692070756E9E
:101220006B74207A62797420777973756E6965744E
:101230007920646F2070727A6F64752E0043616C40
:10124000696272617A696F6E2058595A20636F6DB6
:1012500070726F6D65746964612E2050756E746F65
:101260002064656C616E7465726F20697A7175694E
:101270006572646F206E6F20616C63616E7A61626B
:101280006C652E0043616C696272617A696F6E658C
:101290002058595A20636F6D70726F6D657373615A
:1012A0002E2050756E746F20616E746572696F7256
:1012B000652073696E697374726F206E6F6E207231
:1012C00061676769756E676962696C652E004B615D
:1012D0006C6962726163652058595A206E6570723C
:1012E00065736E612E204C65767920707265646E30
:1012F0006920626F64206D6F63207670726564751B
:101300002E0058595A2063616C6962726174696F6A
:101310006E20636F6D70726F6D697365642E204C03
:101320006566742066726F6E742063616C696272A8
:101330006174696F6E20706F696E74206E6F7420B7
:10134000726561636861626C652E0058595A2D4B55
:10135000616C696272696572756E6720756E67652A
:101360006E61752E20566F7264657265204B616CDC
:1013700069627269657270756E6B74652073696EEF
:1013800064207A75207765697420766F726E652E99
:10139000004B616C6962722E2058595A206E696543
:1013A000646F6B6C61646E612E2050727A65646E3E
:1013B00069652070756E6B7479206B616C696272FF
:1013C0002E205A627974207779732E20646F2070F2
:1013D000727A6F64752E0043616C696272617A691A
:1013E0006F6E2058595A20636F6D70726F6D6574FF
:1013F0006964612E2050756E746F2064656C616E37
:101400007465726F73206E6F20616C63616E7A61B8
:10141000626C65732E0043616C696272617A696FF8
:101420006E652058595A20636F6D70726F6D6573C9
:1014300073612E2050756E746920616E74657269D7
:101440006F7269206E6F6E207261676769756E6773
:101450006962696C692E004B616C696272616365D7
:101460002058595A206E65707265736E612E205037
:101470007265646E69206B616C69627261636E692A
:1014800020626F6479206D6F632076707265647579
:101490002E0058595A2063616C6962726174696FD9
:1014A0006E20636F6D70726F6D697365642E204678
:1014B000726F6E742063616C6962726174696F6EC1
:1014C00020706F696E7473206E6F74207265616333
:1014D0006861626C652E0058595A2D4B616C6962C7
:1014E00072696572756E67206665686C676573639F
:1014F000686C6167656E2E204C696E6B6572207634
:101500006F726465726572204B616C6962726965A5
:101510007270756E6B7420697374207A75207765AC
:10152000697420766F726E652E004B616C69627211
:101530002E2058595A206E69657564616E612E209F
:101540004C6577792070727A65646E692070756E6B
:101550006B74207A62797420646F2070727A6F6481
:10156000752E205779726F776E6163206472756B88
:1015700061726B652E0043616C6962726163696FB1
:101580006E2058595A2066616C6C61642E2050752B
:101590006E746F2064656C616E7465726F20697A19
:1015A0007175696572646F206E6F20616C63616E26
:1015B0007A61626C652E0043616C696272617A695E
:1015C0006F6E652058595A2066616C6C6974612E83
:1015D0002050756E746F20616E746572696F7265EC
:1015E0002073696E697374726F206E6F6E20726102
:1015F000676769756E676962696C652E004B616C1F
:101600006962726163652058595A2073656C68611C
:101610006C612E204C65767920707265646E69204D
:10162000626F64206D6F63207670726564752E2022
:1016300053726F766E656A7465207469736B61723C
:101640006E752E0058595A2063616C69627261741C
:10165000696F6E206661696C65642E204C656674E6
:101660002066726F6E742063616C69627261746966
:101670006F6E20706F696E74206E6F74207265617A
:10168000636861626C652E0058595A2D4B616C6914
:101690006272696572756E67206665686C676573EE
:1016A00063686C6167656E2E20566F726465726543
:1016B000204B616C69627269657270756E6B7465DE
:1016C0002073696E64207A75207765697420766F5F
:1016D000726E652E004B616C6962722E2058595AE9
:1016E000206E69657564616E612E2050727A656442
:1016F0002E2070756E6B7479206B616C6962722E2E
:10170000207A62797420646F2070727A6F64752E0B
:10171000205779726F776E6163206472756B6172A6
:101720006B652E0043616C6962726163696F6E2044
:1017300058595A2066616C6C61642E2050756E7425
:101740006F2064656C616E7465726F73206E6F20BC
:10175000616C63616E7A61626C65732E0043616CCB
:10176000696272617A696F6E652058595A206661A4
:101770006C6C6974612E2050756E746920616E7492
:101780006572696F7269206E6F6E2072616767693A
:10179000756E676962696C692E004B616C69627273
:1017A0006163652058595A2073656C68616C612EBD
:1017B00020507265646E69206B616C69627261634E
:1017C0006E6920626F6479206D6F63207670726538
:1017D00064752E2053726F766E656A746520746925
:1017E000736B61726E752E0058595A2063616C6973
:1017F00062726174696F6E206661696C65642E2027
:1018000046726F6E742063616C6962726174696F95
:101810006E20706F696E7473206E6F7420726561D4
:10182000636861626C652E0058595A2D4B616C6972
:101830006272696572756E67206665686C6765734C
:1018400063686C6167656E2E2042697474652073ED
:1018500063686175656E2053696520696E206461F7
:10186000732048616E64627563682E004B616C6919
:10187000627261636A612058595A206E6965706F9F
:10188000776965647A696F6E612E20537072617733
:10189000647A6963207720696E737472756B636A0A
:1018A000692E0043616C6962726163696F6E2058D2
:1018B000595A2066616C6C6164612E20436F6E73AF
:1018C000756C74617220656C206D616E75616C2041
:1018D000706F72206661766F722E0043616C696270
:1018E00072617A696F6E652058595A2066616C6C16
:1018F0006974612E20536920707265676120646984
:1019000020636F6E73756C7461726520696C206DF5
:10191000616E75616C652E004B616C69627261630A
:10192000652058595A2073656C68616C612E204E91
:1019300061686C65646E65746520646F206D616EAE
:1019400075616C752E0058595A2063616C6962721A
:101950006174696F6E206661696C65642E20506CDD
:101960006561736520636F6E73756C742074686550
:10197000206D616E75616C2E0058595A2D4B616C4B
:10198000696272696572756E67206665686C676505
:101990007363686C6167656E2E204265642D4B61D0
:1019A0006C69627269657270756E6B74206E6963C2
:1019B000687420676566756E64656E2E004B616C99
:1019C0006962722E2058595A206E69657564616E7D
:1019D000612E204B616C6962726163796A6E792055
:1019E00070756E6B7420706F646B6C61646B6920D2
:1019F0006E69657A6E616C657A696F6E792E0043E7
:101A0000616C6962726163696F6E2058595A206611
:101A1000616C6C6164612E2050756E746F7320640C
:101A2000652063616C6962726163696F6E20656EC7
:101A3000206C612063616D61206E6F20656E636F45
:101A40006E747261646F732E0043616C69627261BF
:101A50007A696F6E652058595A2066616C6C69749A
:101A6000612E20496C2070756E746F20646920634C
:101A7000616C696272617A696F6E652073756C2042
:101A80006C6574746F206E6F6E20652720737461AF
:101A9000746F2074726F7661746F2E004B616C6985
:101AA00062726163652058595A2073656C68616C75
:101AB000612E204B616C69627261636E6920626F96
:101AC0006420706F646C6F7A6B79206E656E616CE8
:101AD000657A656E2E0058595A2063616C6962728E
:101AE0006174696F6E206661696C65642E20426561
:101AF000642063616C6962726174696F6E20706FDB
:101B0000696E7420776173206E6F7420666F756ED6
:101B1000642E00426974746520616B7475616C6930
:101B200073696572656E2E0050726F737A65207AE4
:101B3000616B7475616C697A6F776163004163747E
:101B400075616C697A617220706F72206661766F60
:101B50007200507265676120616767696F726E61BC
:101B60002E0050726F73696D20616B7475616C69C2
:101B70007A756A74652E00506C65617365207570A6
:101B800067726164652E004E657565204669726DE9
:101B9000776172652056657273696F6E2076657223
:101BA000667565676261723A005779737A6C612075
:101BB0006E6F776120776572736A61206669726DF6
:101BC000776172653A004E7565766F206669726D51
:101BD0007761726520646973706F6E69626C653AD3
:101BE000004E756F76612076657273696F6E652041
:101BF00064656C206669726D7761726520646973D3
:101C0000706F6E6962696C65005679736C61206EE5
:101C10006F7661207665727A65206669726D77618C
:101C200072653A004E6577206669726D77617265FC
:101C30002076657273696F6E20617661696C61628E
:101C40006C653A00756E64204B6E6F70662064722E
:101C50007565636B656E004E616369736E696A20BA
:101C600070727A796369736B0050756C736172205E
:101C7000656C206D616E646F006520636C696363E1
:101C8000617265206D616E6F706F6C6100612073B1
:101C90007469736B6E65746520746C616369746BD1
:101CA0006F00616E642070726573732074686520C4
:101CB0006B6E6F620046696C616D656E742065695C
:101CC0006E6C6567656E005770726F7761647A201D
:101CD00066696C616D656E7400496E74726F6475CF
:101CE0006369722066696C616D656E746F00496E20
:101CF0007365726972652066696C616D656E746F7B
:101D000000566C6F7A74652066696C616D656E74DF
:101D100000496E736572742066696C616D656E74DE
:101D200000466172626520756E6B6C6172004B6F6C
:101D30006C6F72207A616E6965637A79737A2E00AE
:101D4000436F6C6F72206E6F20686F6D6F67656E8A
:101D5000656F00436F6C6F7265206E6F6E207075DB
:101D6000726F004261727661206E656E69206369F0
:101D700073746100436F6C6F72206E6F7420636CBC
:101D80006561720046696C2E206E69636874206715
:101D9000656C6164656E004272616B2066696C619E
:101DA0006D656E74750046696C2E206E6F20696ECD
:101DB00074726F64756369646F0046696C2E206E7F
:101DC0006F6E20636172696361746F0046696C6154
:101DD0006D656E74206E657A61766564656E004629
:101DE000696C616D656E74206E6F74206C6F6164D8
:101DF0006564005765636873656C206F6B3F0057BF
:101E0000796D69616E61206F6B3F0043616D62693E
:101E100061646F20636F72726563742E3F0043616B
:101E20006D626961746F20636F72722E3F00567924
:101E30006D656E61206F6B3F004368616E6765641E
:101E400020636F72726563746C793F004C616465E6
:101E500020466172626500437A79737A637A2E2034
:101E60006B6F6C6F72750043616D6269616E646F58
:101E700020636F6C6F72004361726963616E646F9F
:101E800020636F6C6F72650043697374656E6920BF
:101E90006261727679004C6F6164696E6720636F6E
:101EA0006C6F72005765636873656C206572666F4E
:101EB0006C67722E210057796D69616E61206F6BBE
:101EC000210043616D62696F20636F727265637494
:101ED0006F0043616D62696F207269757363697425
:101EE0006F21005A6D656E612075737065736E6148
:101EF00021004368616E6765207375636365737362
:101F00002100456B73747275646572004578747254
:101F100075736F72004573747275736F72650045E7
:101F20007874727564657200576165686C656E20BF
:101F300053696520457874727564657200577962DB
:101F40006965727A20656B73747275646572004599
:101F50006C65676972206578747275736F723A0088
:101F600053656C657A696F6E612065737472757301
:101F70006F72653A0056796265727465206578748F
:101F800072756465723A0043686F6F736520657897
:101F90007472756465723A004163746976652045B0
:101FA000787472756465723A2000496E76616C6966
:101FB0006420657874727564657200497374204694
:101FC00061726265207265696E3F00437A79206BA9
:101FD0006F6C6F72206A65737420637A7973747999
:101FE0003F00457320656C206E7565766F20636FCA
:101FF0006C6F72206E697469646F3F00496C206376
:102000006F6C6F7265206527206E697469646F3F1D
:10201000004A652062617276612063697374613F72
:1020200000497320636F6C6F7220636C6561723F4F
:102030000046696C616D656E7420617573776572B9
:1020400066656E005779737577616D2066696C619E
:102050006D656E7400536F6C74616E646F20666999
:102060006C616D656E746F0052696C6173632E20D4
:1020700066696C616D656E746F005679736F757605
:10208000616D2066696C616D656E7400556E6C6F74
:102090006164696E672066696C616D656E74005A73
:1020A000204F666673657400556E6B6E6F776E2099
:1020B000636F6D6D616E643A2022004D32303020C6
:1020C000496E76616C6964206578747275646572B6
:1020D00020007A5F6D61783A20007A5F6D696E3A10
:1020E0002000795F6D61783A2000795F6D696E3A02
:1020F0002000785F6D61783A20006F70656E005443
:10210000524947474552454400785F6D696E3A2011
:10211000005265706F7274696E6720656E647374C7
:102120006F70207374617475730020436F756E74E3
:1021300020583A20004649524D574152455F4E4182
:102140004D453A4D61726C696E2056312E302E32FB
:102150003B20537072696E7465722F6772626C20D7
:102160006D617368757020666F722067656E3620CA
:102170004649524D574152455F55524C3A68747426
:1021800070733A2F2F6769746875622E636F6D2FB5
:10219000707275736133642F50727573612D69337A
:1021A0002D506C75732F2050524F544F434F4C5F3E
:1021B00056455253494F4E3A312E30204D414348F7
:1021C000494E455F545950453A6933204D4B3220B2
:1021D00052616D70732045585452554445525F43C7
:1021E0004F554E543A3120555549443A30303030ED
:1021F000303030302D303030302D303030302D30E8
:102200003030302D303030303030303030303030D1
:102210000A004F66660020766F6E203400207A2018
:102220003400206465203400207375203400207A47
:10223000203400206F6620340053756368656E207B
:10224000426564204B616C69627269657270756E7B
:102250006B7400537A756B616D2070756E6B74755D
:10226000206B616C6962726163796A6E65676F2069
:10227000706F646B6C61646B690042757363616E4F
:10228000646F2063616D612070756E746F2064658A
:102290002063616C6962726163696F6E0052696389
:1022A000657263612064656C206C6574746F207066
:1022B000756E746F2064692063616C696272617A03
:1022C0002E00486C6564616D206B616C696272619F
:1022D000636E6920626F6420706F646C6F7A6B79D3
:1022E00000536561726368696E672062656420638C
:1022F000616C6962726174696F6E20706F696E746F
:10230000004C6567656E2065696E20426C6174746F
:102310002050617069657220756E74657220646901
:1023200065204475657365207761656872656E64C4
:1023300020646572204B616C696272696572756EAA
:1023400067206465722065727374656E2034205056
:10235000756E6B74652E2057656E6E2064696520FE
:10236000447565736520646173205061706965729E
:102370002065696E6B6C656D6D742C20447275639D
:102380006B657220736F666F72742061757373630F
:1023900068616C74656E00556D69657363206B616F
:1023A00072746B652070617069657275206E612052
:1023B000706F646B6C6164636520692074727A79F4
:1023C0006D616A20706F64206479737A6120706F28
:1023D00064637A617320706F6D69617275207069D2
:1023E000657277737A79636820342070756E6B74C8
:1023F0006F772E204A65736C69206479737A612047
:102400007A616861637A79206F20706170696572A2
:102410002C2077796C61637A206472756B61726BC2
:10242000652E00436F6C6F63617220756E6120686A
:102430006F6A6120646520706170656C20736F62E3
:102440007265206C61207375706572666963696579
:1024500020646520696D70726573696F6E206475A4
:1024600072616E7465206C612063616C6962726177
:1024700063696F6E206465206C6F73207072696D84
:1024800065726F7320342070756E746F732E2053D5
:1024900069206C6120626F7175696C6C61206D756B
:1024A00065766520656C20706170656C2C206170AC
:1024B0006167617220696D707265736F7261206906
:1024C0006E6D6564696174616D656E74652E005032
:1024D0006F72726520756E20666F676C696F20730E
:1024E0006F74746F206C277567656C6C6F206475F2
:1024F00072616E7465206C612063616C69627261E7
:102500007A696F6E6520646569207072696D6920F3
:10251000342070756E74692E20496E206361736F6C
:10252000206C277567656C6C6F206D756F76612008
:10253000696C20666F676C696F20737065676E6584
:1025400072652070726F6E74616D656E7465206C5B
:1025500061207374616D70616E74652E00556D69D4
:102560007374657465206C6973742070617069722E
:1025700075206E6120706F646C6F7A6B75206120BE
:102580007564727A756A7465206A656A20706F6412
:1025900020747279736B6F7520626568656D206D4C
:1025A0006572656E69207072766E6963682034208A
:1025B000626F64752E20506F6B756420747279732E
:1025C0006B61207A616368797469207061706972E7
:1025D0002C207679706E657465207469736B6172F6
:1025E0006E752E00506C61636520612073686565AF
:1025F00074206F6620706170657220756E646572FC
:1026000020746865206E6F7A7A6C652064757269D3
:102610006E67207468652063616C696272617469B9
:102620006F6E206F66206669727374203420706F3D
:10263000696E74732E20496620746865206E6F7A07
:102640007A6C6520636174636865732074686520C3
:1026500070617065722C20706F776572206F66668E
:1026600020746865207072696E74657220696D6D82
:102670006564696174656C792E00456E64206669D5
:102680006C65206C69737400426567696E206669C9
:102690006C65206C697374004B65696E65204265DA
:1026A000776567756E672E0053696E206D6F76696A
:1026B0006D69656E746F004E657373756E206D6F16
:1026C00076696D656E746F2E004E6F206D6F766546
:1026D0002E00447275636B20666F72746765736554
:1026E000747A7400577A6E6F7769656E69652064D5
:1026F00072756B7500526573756D69656E646F20D8
:10270000696D70726573696F6E0052697072656E83
:102710006469207374616D7061004F626E6F7665DD
:102720006E69207469736B7500526573756D696E9F
:1027300067207072696E74005761727465206175EC
:102740006620757365722E2E2E004573706572615A
:102750006E646F206F7264656E657300417474659A
:102760006E64656E646F207574656E746500576184
:10277000697420666F7220757365722E2E2E005A52
:102780002D4B616C696272696572756E6720666552
:10279000686C67657363686C672E2053656E736F32
:1027A00072207A7520686F63682061757367656C45
:1027B0006F6573742E205761727465206175662091
:1027C00052657365742E004B616C69627261636A55
:1027D00061205A206E69657564616E612E205365B3
:1027E0006E736F7220646F746B2E207A612077791C
:1027F000736F6B6F2E20437A656B616D206E612065
:1028000072657365742E004E6976656C6163696FDD
:102810006E2066616C6C6164612E2053656E736F0F
:10282000722066756E63696F6E612064656D617399
:102830006961646F2074656D7072616E6F2E2045E2
:1028400073706572616E646F2072657365742E00BB
:102850004C6976656C6C616D656E746F206C657427
:10286000746F2066616C6C69746F2E52697370208E
:1028700073656E736F72652074726F70706F207005
:10288000726573746F496E2061747465736120643E
:10289000692072657365742E004B616C69627261A8
:1028A0006365205A2073656C68616C612E205365E6
:1028B0006E736F72207365706E756C207072696CC8
:1028C0006973207679736F6B6F2E2043656B616D32
:1028D000206E612072657365742E00426564206C01
:1028E0006576656C696E67206661696C65642E202B
:1028F00053656E736F722074726967676572656481
:1029000020746F6F20686967682E20576169746949
:102910006E6720666F722072657365742E005A2D83
:102920004B616C696272696572756E672066656875
:102930006C67657363686C672E2053656E736F7286
:10294000206E6963687420616E67657363686C6F7D
:102950007373656E2E2057617274652061756620F1
:1029600052657365742E004B616C69627261636AB3
:1029700061206E69657564616E612E2053656E73AA
:102980006F72206F646C61637A6F6E79206C756210
:102990002075737A6B6F647A2E206B6162656C2E82
:1029A00020437A656B616D206E612072657365747A
:1029B0002E004E6976656C6163696F6E2066616C8E
:1029C0006C6164612E2053656E736F722064657351
:1029D000636F6E65637461646F206F206361626C06
:1029E00065732064616E61646F732E20457370653A
:1029F00072616E646F2072657365742E004C697627
:102A0000656C6C616D656E746F206C6574746F209D
:102A100066616C6C69746F2E2053656E736F72659E
:102A200020646973636F6E2E206F204361766F2080
:102A300044616E6E2E20496E20617474657361204E
:102A400064692072657365742E004B616C696272F3
:102A5000616365205A2073656C68616C612E205338
:102A6000656E736F72206A65206F64706F6A656E41
:102A700079206E65626F20707265727573656E790C
:102A8000206B6162656C2E2043656B616D206E6109
:102A90002072657365742E00426564206C657665EE
:102AA0006C696E67206661696C65642E2053656E83
:102AB000736F7220646973636F6E6E6563746564AF
:102AC000206F72206361626C652062726F6B656E4D
:102AD0002E2057616974696E6720666F7220726577
:102AE0007365742E005A2D4B616C2E206665686CE0
:102AF00067657363686C672E2053656E736F722011
:102B00006E696368742061757367656C6F65737453
:102B10002E205363686D75747A6967652044756506
:102B200073653F2057617274652061756620526538
:102B3000736574004B616C69627261636A61206ED7
:102B400069657564616E612E2053656E736F7220C6
:102B50006E696520646F746B6E616C2E205A616EB5
:102B60006965637A79737A2E206479737A613F207C
:102B7000437A656B616D206E612072657365742E9A
:102B8000004E6976656C6163696F6E2066616C6C7E
:102B90006164612E2053656E736F72206E6F2066C4
:102BA000756E63696F6E612E204573636F6D62721F
:102BB0006F7320656E20426F7175692E3F204573DB
:102BC000706572616E646F2072657365742E004C5F
:102BD0006976656C6C616D656E746F206C6574747C
:102BE0006F2066616C6C69746F2E4E6F52697370E2
:102BF00053656E736F7220526573696475692073D3
:102C000075207567656C6C6F3F20496E2061747428
:102C10006573612064692072657365742E004B6171
:102C20006C696272616365205A2073656C68616CBF
:102C3000612E2053656E736F72206E657365706EC2
:102C4000756C2E205A6E6563697374656E612074AD
:102C50007279736B613F2043656B616D206E6120FB
:102C600072657365742E00426564206C6576656CD0
:102C7000696E67206661696C65642E2053656E73AA
:102C80006F72206469646E7420747269676765721C
:102C90002E20446562726973206F6E206E6F7A7A9F
:102CA0006C653F2057616974696E6720666F72209A
:102CB00072657365742E0054656D702E204B616CC7
:102CC000696272696572756E67206665727469679C
:102CD0002E204B6C69636B656E20756D207765697E
:102CE000746572207A7520676568656E2E00436989
:102CF00065706C6E61206B616C69627261636A61A0
:102D0000207A616B6F6E637A6F6E612E204B6F6EEF
:102D100074796E75756A2070727A796369736B69FC
:102D2000656D0043616C69627261636F6E207465EA
:102D30006D7065726174757261207465726D696E13
:102D40006164612E2050726573696F6E61722070CC
:102D500061726120636F6E74696E7561722E0054CA
:102D6000617261747572612074656D7065726174F1
:102D7000757261207465726D696E6174612E204692
:102D800061726520636C69636B2070657220636F8C
:102D90006E74696E756172652E005465706C6F7427
:102DA0006E69206B616C69627261636520646F6B30
:102DB0006F6E63656E612E20506F6B726163756A12
:102DC000746520737469736B656D20746C616369DD
:102DD000746B612E0054656D7065726174757265F7
:102DE0002063616C6962726174696F6E206973201F
:102DF00066696E69736865642E20436C69636B2035
:102E0000746F20636F6E74696E75652E0045696E10
:102E1000656E204D6F6D656E742062697474652EE9
:102E200000456E2065737065726100536F73706545
:102E30006E73696F6E652E2E2E00536C6565702E55
:102E40002E2E005A207368696674206170706C6958
:102E500065643A000A000A002F0097030A002E005A
:102E600044656C6574696F6E206661696C65642C7D
:102E70002046696C653A200046696C652064656C83
:102E8000657465643A002E005F0439041204EA0395
:102E9000C603A903CE0582054D051505D604860493
:102EA000FE07A6073807D306700608064B0AF50981
:102EB00089092609C5085F08950B6D0B350B030BB7
:102EC000D40AAA0A5920736561726368696E672023
:102ED00072616469757320686967686572207468D7
:102EE000616E20585F4D41582E20436C616D7069B2
:102EF0006E672077617320646F6E652E00592073B2
:102F00006561726368696E672072616469757320B8
:102F10006C6F776572207468616E20595F4D494E01
:102F20002E20436C616D70696E6720776173206439
:102F30006F6E652E005820736561726368696E67F5
:102F400020726164697573206869676865722074AE
:102F500068616E20585F4D41582E20436C616D7042
:102F6000696E672077617320646F6E652E0058204C
:102F7000736561726368696E6720726164697573F5
:102F8000206C6F776572207468616E20585F4D49C0
:102F90004E2E20436C616D70696E672077617320DF
:102FA000646F6E652E00536176696E67206265649A
:102FB0002063616C6962726174696F6E207665630B
:102FC000746F727320746F20454550524F4D0050FE
:102FD000657270656E646963756C6172697479009D
:102FE0005A65726F20706F696E7420636F727265BC
:102FF0006374696F6E3A005920766563746F72204E
:103000006C656E6774683A005820766563746F72F9
:10301000206C656E6774683A00203C20005741526E
:103020004E494E473A2046726F6E7420706F696E3B
:1030300074206E6F7420726561636861626C652EC6
:10304000205920636F6F7264696E6174653A000085
:1030500070745B315D3A0070745B305D3A00004D16
:10306000656173757265643A000063757272656EAE
:10307000745F706F736974696F6E5B5A5F41584912
:10308000535D3A000063757272656E745F706F73A2
:103090006974696F6E5B595F415849535D3A00002E
:1030A00063757272656E745F706F736974696F6E49
:1030B0005B585F415849535D3A0000009E42FCFF57
:1030C000FFBF00001F430000C04200009E420000FE
:1030D0004243000080BF0000C042417420592D349B
:1030E00000417420593000E60BDD0BCF0BC20BB84A
:1030F0000BE60B00636E74725B315D3A0000636E29
:1031000074725B305D3A00007665635F795B315DB8
:103110003A00007665635F795B305D3A0000766562
:10312000635F785B315D3A00007665635F785B30A2
:103130005D3A00566563746F72733A200049746596
:10314000726174696F6E3A2000626F74746F6D0003
:10315000746F700000506F696E74206865696768ED
:103160007420746F6F20736D616C6C3A200072690B
:10317000676874006C6566740000506F696E742037
:10318000776964746820746F6F20736D616C6C3A3A
:103190002000002C20003A200046696E616C2063FC
:1031A000616C63756C617465642062656420706F26
:1031B000696E74200000793A000044697374616E8E
:1031C00063652066726F6D206D696E3A000052650E
:1031D000736574696E6720746F6F20666172206D0D
:1031E00061736B2E0043616C63756C6174696F6E03
:1031F000206F6620746865206D616368696E652064
:10320000736B657720616E64206F666673657420EA
:103210006661696C65642E0044697374616E6365F0
:103220002066726F6D206D696E206265666F7265D3
:103230002063616C63756C6174655F6D616368695F
:103240006E6520736B657720616E64206F666673B0
:103250006574204C533A00002C20003A2000466947
:103260006E616C206D656173757265642062656462
:1032700020706F696E74200000206661696C65645F
:103280002E204C6F776572696E67207A20746F20EC
:10329000002C20697465726174696F6E2000496D3D
:1032A00070726F76696E672062656420706F696EF8
:1032B000742000002C207A002C20697465726174DF
:1032C000696F6E2000496D70726F76696E6720625B
:1032D000656420706F696E742000006C6F77657292
:1032E000207468616E20596D696E2E205920636FBD
:1032F0006F7264696E61746520636C616D70696E74
:10330000672077617320757365642E0043616C6973
:1033100062726174696F6E20706F696E7420004113
:103320007420595F4D494E5F504F530041742059EE
:1033300030000E0C090C030CFD0BF80BF10BD00C3C
:10334000AC0C850C610C340C140C496D70726F76EA
:10335000696E6720626564206F66667365742061BC
:103360006E6420736B657700590E120EC60D7F0DCB
:10337000350DF00CE90FAC0F6A0F150FD50E9A0E34
:1033800067112F11EB10AD1075102C100213CE1217
:1033900084123D12F411A811921457141614D71365
:1033A00091134B134416FD15B71576152A15D7142E
:1033B000E8179A175D172417D51688164619181995
:1033C000DB18A3186C182818D61A9C1A491AFF196A
:1033D000BD19791920573A0020453A00543A007730
:1033E0001B621B521B3D1B281B131B00241C091CAA
:1033F000E11BC61BA91B871B504944204175746FF4
:1034000074756E652066696E697368656421205005
:10341000757420746865206C617374204B702C2067
:103420004B6920616E64204B6420636F6E7374611E
:103430006E74732066726F6D2061626F76652069AD
:103440006E746F20436F6E66696775726174696F21
:103450006E2E6800504944204175746F74756E6516
:10346000206661696C6564212074696D656F75748F
:103470000020403A006F6B20543A006F6B20423AB4
:1034800000504944204175746F74756E6520666103
:10349000696C6564212054656D7065726174757224
:1034A0006520746F6F206869676800204B643A205C
:1034B00000204B693A2000204B703A200020436CDA
:1034C00061737369632050494420002054753A2089
:1034D00000204B753A2000206D61783A2000206D65
:1034E000696E3A200020643A200020626961733AD4
:1034F000200053657474696E67732053746F72652E
:10350000640046696C616D656E74207365747469DE
:103510006E67733A2044697361626C6564002020B1
:10352000204D32303020440046696C616D656E7408
:103530002073657474696E67733A002020204D32E1
:1035400030392053004175746F2D52657472616378
:10355000743A20533D3020746F2064697361626C4B
:10356000652C203120746F20696E746572707265ED
:103570007420657874727564652D6F6E6C79206D3A
:103580006F76657320617320726574726163747302
:10359000206F72207265636F7665726965730020B3
:1035A00046002020204D3230382053005265636F92
:1035B0007665723A20533D4578747261206C656E71
:1035C00067746820286D6D2920463A5370656564DC
:1035D00020286D6D2F6D2900205A002046002020E4
:1035E000204D323037205300526574726163743A53
:1035F00020533D4C656E67746820286D6D29204608
:103600003A537065656420286D6D2F6D29205A3AF4
:10361000205A4C69667420286D6D290020440020D2
:1036200049002020204D33303420500050494420A0
:10363000686561746265642073657474696E67732C
:103640003A002044002049002020204D3330312012
:1036500050005049442073657474696E67733A0072
:10366000205A0020590020204D3230362058004882
:103670006F6D65206F666673657420286D6D293ADD
:1036800000204500205A0020590020580020420008
:1036900020540020204D32303520530041647661A3
:1036A0006E636564207661726961626C65733A204D
:1036B000533D4D696E2066656564726174652028AE
:1036C0006D6D2F73292C20543D4D696E20747261ED
:1036D00076656C20666565647261746520286D6D21
:1036E0002F73292C20423D6D696E696D756D2073B5
:1036F00065676D656E742074696D6520286D73292A
:103700002C20583D6D6178696D756D205859206A7F
:1037100065726B20286D6D2F73292C20205A3D6D0A
:103720006178696D756D205A206A65726B20286D0D
:103730006D2F73292C2020453D6D6178696D756D65
:103740002045206A65726B20286D6D2F732900203B
:10375000540020204D323034205300416363656CA7
:1037600065726174696F6E3A20533D616363656C85
:1037700065726174696F6E2C20543D72657472615C
:10378000637420616363656C65726174696F6E0058
:10379000204500205A0020590020204D3230312091
:1037A00058004D6178696D756D20416363656C6586
:1037B000726174696F6E20286D6D2F7332293A0023
:1037C000204500205A0020590020204D323033205F
:1037D00058004D6178696D756D206665656472612C
:1037E00074657320286D6D2F73293A0020450020E1
:1037F0005A0020590020204D39322058005374655A
:1038000070732070657220756E69743A00A21C8D09
:103810001C791C691C571C441C111D011DEE1CD970
:103820001CC71CB51C741D631D531D401D2E1D217E
:103830001DDF1DCC1DBA1DA61D971D841D391E2E12
:103840001E1E1E0B1EFF1DF31D961E881E771E6773
:103850001E571E4C1EF21EE31ED21EC21EB61EA412
:103860001E1F1F1F1F151F0C1F021F1F1F871F75E5
:103870001F601F4F1F3D1F281F2200981FAA1F54A3
:1038800000496E76616C6964205420636F64652E14
:1038900000496E76616C6964204D20636F64652E0B
:1038A0000021201120FC1FE21FCB1FBB1F4D323215
:1038B0003020532569008C207A2068205520442030
:1038C0003120203A2000009F204C414E4720534594
:1038D0004C20464F52434544002200A820BB20D232
:1038E00020DA20E220EA20F220FA20FF200921112C
:1038F00021205A3A0020593A002A2120453A002036
:103900005A3A0020593A00583A0035212E0020003A
:10391000122220423A0020453A00543A0020424008
:103920003A0020403A00202F003A00205400202F77
:103930000020423A00202F006F6B20543A003322BF
:103940002E22282222221D221622E122C2229D227C
:103950007A2253223922E4255D25CF24232497237C
:1039600001232569206D696E2C202569207365630C
:10397000007A268826C926C926B726A826C92698E9
:103980002629271A270A27F526E426D2266E276E2F
:10399000275C274A276E273827496E76616C696451
:1039A000204D20636F6465004D6573682062656417
:1039B000206C6576656C696E67206E6F742061633C
:1039C000746976652E000A002020000A4D65617337
:1039D0007572656420706F696E74733A000A5A20BC
:1039E000736561726368206865696768743A20006E
:1039F0002C004E756D20582C593A2000476F2068D6
:103A00006F6D652066696E6973686564004D6573E6
:103A10006820626564206C6576656C696E672061FC
:103A2000637469766174656400557073616D706C60
:103A3000652066696E697368656400426564206C20
:103A40006576656C696E6720636F72726563746911
:103A50006F6E2066696E697368656400206D6963C6
:103A6000726F6E7300457863657373697665206263
:103A70006564206C6576656C696E6720636F727231
:103A8000656374696F6E3A200042656420636F72EB
:103A900072656374696F6E2064617461206E6F7407
:103AA0002076616C69640A0042656420636F7272FB
:103AB000656374696F6E20646174612076616C69FE
:103AC000640A006261627973746570206170706C61
:103AD00069656400636C65616E2075702066696E4F
:103AE000697368656420004D4553485F484F4D45F4
:103AF0005F5A5F5345415243483A20004D65736811
:103B000020626564206C6576656C696E67207768F5
:103B1000696C65206C6F6F702066696E697368658B
:103B2000642E00006D65736820626564206C6576A4
:103B3000656C696E673A20000A00593A2000005807
:103B40003A2000DB28992850280728C7277F279884
:103B50002A4A2AFD29B22967291E29672C1E2CCF43
:103B60002B812B342BE52A3A206E6F207879206345
:103B70006C616D70696E670A003A20787920636C19
:103B8000616D7065642E0A00002C2063616C6962AF
:103B9000726174696F6E207A3A2000426564206C0D
:103BA0006576656C696E672C20706F696E743A205B
:103BB00000005A206A69747465722064617461201F
:103BC00066726F6D205A2063616C2E206E6F7420B8
:103BD00076616C69642E0A005A206A697474657291
:103BE00020646174612066726F6D205A2063616C7D
:103BF0002E2076616C69642E0A004E6F20636C6122
:103C00006D70696E6720666F7220666972737420CA
:103C100063616C6962726174696F6E20706F696E46
:103C2000742E0A0046697273742063616C69627253
:103C30006174696F6E20706F696E7420636C616D62
:103C40007065642E0A0047323820573000473238FA
:103C500020573000D52D9A2D5F2D232DEE2CB72C1B
:103C600054656D70657261747572652063616C690D
:103C700062726174696F6E20646F6E652E20436F8F
:103C80006E74696E756520776974682070726573EB
:103C900073696E6720746865206B6E6F622E00001A
:103CA000205A20736869667420286D6D293A005483
:103CB000656D70657261747572653A2000002F360B
:103CC00000537465703A2000005A45524F3A200064
:103CD0000050494E44412070726F62652063616CF0
:103CE0006962726174696F6E2073746172740047E7
:103CF0003238205730000A00205A3A200020593A22
:103D0000200020583A20003A2E3A2E2B2E212E3A0F
:103D10002E0D2E000043616C63756C617465206F1D
:103D2000666673657420616E6420736B65772072BC
:103D3000657475726E696E6720726573756C743A1E
:103D4000000000292C206572726F723A20002C202E
:103D500000293B207461726765743A2028002C208A
:103D600000293B206D656173757265642D636F7208
:103D70007265637465643A2028002C20006D6561CB
:103D800073757265643A202800706F696E74202321
:103D900000446966666572656E6365206166746578
:103DA0007220636F7272656374696F6E3A200000EF
:103DB0002C200063656E7465722C2061646A7573D3
:103DC0007465643A2000002C2000592076656374E5
:103DD0006F722C2061646A75737465643A20000008
:103DE0002C20005820766563746F722C2061646A01
:103DF00075737465643A200000636E74725B315DA4
:103E00003A0000636E74725B305D3A0046696E6121
:103E10006C20636E74722076616C7565733A000075
:103E2000000077793A0000636E74725B315D3A008E
:103E3000005765696768745F793A000077783A00DF
:103E400000636E74725B305D3A00005765696768A5
:103E5000745F783A000056657279206C6974746CEE
:103E60006520736B65772064657465637465642E83
:103E7000204F7274686F676F6E616C697A696E67E4
:103E80002074686520617865732E00004D61782E7E
:103E9000206572726F72206575636C696469616E0A
:103EA0003A004D61782E206572726F7220593A0087
:103EB0004D61782E206572726F7220583A004D6104
:103EC000782E206572726F72733A0000002C2065A4
:103ED00072726F7220593A20002C206572726F72D4
:103EE00020583A20006572726F723A200029002C27
:103EF0002000293B207461726765743A2028002CE9
:103F00002000293B20636F727265637465643A20F8
:103F100028002C20006D656173757265643A202855
:103F200000002C206572726F72203E206D61782E29
:103F3000206572726F72206575636C696469616E69
:103F400000506F696E74206E6F74206F6E2066690A
:103F500072737420726F77002C206572726F7220FA
:103F600059203E206D61782E206572726F72205943
:103F7000002C206572726F722058203E206D61788F
:103F80002E206572726F722058002C207765696749
:103F9000746820593A2000506F696E74206F6E204B
:103FA000666972737420726F77003A00706F696E81
:103FB000742023004572726F7220616674657220EE
:103FC000636F7272656374696F6E3A2000002C2013
:103FD0000063656E746572206E65772C20696E765D
:103FE00065727465643A2000002C200059207665C3
:103FF00063746F72206E65772C20696E76657274BB
:1040000065643A2000002C20005820766563746FA8
:1040100072206E65772C20696E7665727465643ADD
:104020002000002C2000636F7272656374696F6EEC
:1040300020616E676C65733A2000002C2000636F6E
:104040007272656374656420616E676C65733A2093
:1040500000002C2000636F727265637465642078C1
:104060002F793A2000002C20002C20002C20003B2F
:1040700020636F7272656374696F6E207665637416
:104080006F723A2000697465726174696F6E3A20CC
:104090000000292C206572726F723A20002C2000DB
:1040A000293B207461726765743A2028002C200037
:1040B000206D656173757265643A202800706F69C0
:1040C0006E74202300002C200063656E7465722CD2
:1040D00020696E697469616C3A2000002C200059D7
:1040E00020766563746F722C20696E697469616CE7
:1040F0003A2000002C20005820766563746F722CE3
:1041000020696E697469616C3A200063616C637543
:104110006C617465206D616368696E6520736B65A1
:104120007720616E64206F6666736574204C53005F
:1041300054656D706572617475722077757264650F
:10414000206E69636874206B616C69627269657264
:104150007400436965706C6E61206B616C6962729A
:1041600061636A61206E69652062796C612070729A
:104170007A6570726F7761647A6F6E61004C61204E
:1041800074656D7065726174757261206465206319
:10419000616C6962726163696F6E206E6F20686125
:1041A000207369646F20616A75737461646100547F
:1041B000617261747572612064656C6C61207465F4
:1041C0006D7065726174757261206E6F6E20616EC4
:1041D000636F726120657365677569746100546906
:1041E000736B61726E61206E6562796C61207465BB
:1041F000706C6F746E65207A6B616C6962726F7639
:10420000616E610054656D706572617475726520D0
:1042100063616C6962726174696F6E20686173209A
:104220006E6F74206265656E2072756E207965749C
:10423000004465722041627374616E64207A77690C
:10424000736368656E2064657220537069747A6563
:104250002064657220447565736520756E64206402
:1042600065722042656420697374206E6F636820F4
:104270006E696368742065696E67657374656C6CDC
:10428000742E20426974746520666F6C67656E20B9
:104290005369652064656D2048616E64627563686A
:1042A0002C2046697273742073746570732C2073AC
:1042B000656374696F6E204669727374206C6179EE
:1042C00065722063616C6962726174696F6E2E0041
:1042D0004F646C65676C6F7363206479737A7920BF
:1042E0006F6420706F646B6C61646B69206E6965CC
:1042F000206A65737420736B616C6962726F776199
:104300006E612E20506F73746570756A207A676FC6
:10431000646E6965207A20696E737472756B636A66
:104320006120726F7A647A69616C205A61637A796C
:104330006E616D792C20706F64726F7A647A696136
:104340006C204B616C69627261636A61207069659F
:104350007277737A656A20776172737477792E0049
:1043600044697374616E63696120656E747265205F
:104370006C612070756E7461206465206C612062D0
:104380006F7175696C6C612079206C612073757038
:1043900065726669636965206465206C612063618C
:1043A0006D61206E6F2066696A6164612061756E5F
:1043B0002E20506F72206661766F7220736967617C
:1043C00020656C206D616E75616C2C206361706975
:1043D00074756C6F204669727374207374657073A2
:1043E0002C2073656363696F6E2046697273742055
:1043F0006C617965722063616C6962726174696F66
:104400006E2E0044697374616E7A6120747261204B
:104410006C612070756E74612064656C6C277567C3
:10442000656C6C6F2065206C6120737570657266B9
:10443000696369652064656C206C6574746F206EB7
:104440006F6E20616E636F726120696D706F73743F
:10445000612E205369207072656761206469207342
:1044600065677569726520696C206D616E75616C38
:10447000652C2063617069746F6C6F20466972737C
:10448000742073746570732C2073657A696F6E6520
:10449000204669727374206C617965722063616C67
:1044A0006962726174696F6E2E004E656E69207A62
:1044B0006B616C6962726F76616E6120767A64619D
:1044C0006C656E6F737420747279736B79206F648E
:1044D000207469736B6F766520706F646C6F7A6B94
:1044E000792E20506F73747570756A7465207072C0
:1044F0006F73696D20706F646C65206D616E75619E
:104500006C752C206B617069746F6C61205A6163EB
:10451000696E616D652C206F6473746176656320CC
:104520004E6173746176656E69207072766E692073
:104530007672737476792E0044697374616E636564
:10454000206265747765656E20746970206F6620DF
:10455000746865206E6F7A7A6C6520616E64207471
:1045600068652062656420737572666163652068A2
:104570006173206E6F74206265656E2073657420B0
:104580007965742E20506C6561736520666F6C6C64
:104590006F7720746865206D616E75616C2C206387
:1045A00068617074657220466972737420737465F3
:1045B00070732C2073656374696F6E204669727323
:1045C00074206C617965722063616C6962726174D8
:1045D000696F6E2E0044657220447275636B65725C
:1045E000207775726465206E6F6368206E696368FA
:1045F00074206B616C696272696572742E20426905
:1046000074746520666F6C67656E205369652064FD
:10461000656D2048616E64627563682C204B617023
:104620006974656C20466972737420737465707365
:104630002C2041627363686E6974742043616C69F5
:1046400062726174696F6E20666C6F772E004472BF
:10465000756B61726B61206E6965207A6F7374612E
:104660006C61206A65737A637A6520736B616C692B
:1046700062726F77616E612E2050726F737A65205F
:104680006B6965726F7761632073696520696E730A
:104690007472756B636A612C20726F7A647A6961D7
:1046A0006C205A61637A796E616D792C20706F6429
:1046B000726F7A647A69616C2053656C6674657395
:1046C000742E00496D707265736F7261206E6F2079
:1046D000657374612063616C6962726164612074E6
:1046E0006F64617669612E20506F72206661766F0B
:1046F00072207573617220656C206D616E75616CDE
:104700002C20656C206361706974756C6F2046693C
:104710007273742073746570732C2073656C656399
:1047200063696F6E2043616C6962726174696F6E58
:1047300020666C6F772E005374616D70616E7465C6
:1047400020616E636F7261206E6F6E2063616C69B1
:1047500062726174612E20536920707265676120F6
:104760006469207365677569726520696C206D6185
:104770006E75616C652C2063617069746F6C6F205D
:104780005052494D492050415353492C2073657A6A
:10479000696F6E652064656C6C612063616C696231
:1047A00072617A696F6E652E005469736B61726E07
:1047B00061206E6562796C61206A65737465207A28
:1047C0006B616C6962726F76616E612E20506F73DF
:1047D000747570756A74652070726F73696D20707E
:1047E0006F646C65206D616E75616C752C206B61FA
:1047F0007069746F6C61205A6163696E616D652CBC
:10480000206F6473746176656320506F7374757084
:10481000206B616C6962726163652E005072696E13
:1048200074657220686173206E6F74206265656EB6
:104830002063616C69627261746564207965742EAD
:1048400020506C6561736520666F6C6C6F772074A7
:104850006865206D616E75616C2C20636861707491
:1048600065722046697273742073746570732C20AE
:1048700073656374696F6E2043616C696272617401
:10488000696F6E20666C6F772E002020506C616E11
:104890006E657242756666657242797465733A2018
:1048A000002046726565204D656D6F72793A200073
:1048B000207C20417574686F723A2000204C61732F
:1048C0007420557064617465643A200020536F66EB
:1048D0007477617265205265736574002057617446
:1048E0006368646F67205265736574002042726F5D
:1048F000776E206F7574205265736574002045785B
:104900007465726E616C20526573657400506F77C8
:1049100065725570006572726F7220777269746982
:104920006E6720746F2066696C6500656E647374D1
:104930006F7073206869743A2000446F6E6520734D
:104940006176696E672066696C652E006F6B004347
:104950006F6E74696E7565207769746820616E6F1B
:104960007468657220626F7764656E3F0025002071
:1049700020202020200020202020202000455241FF
:1049800053494E4720616C6C20646174610046613C
:1049900063746F72792052455345540050525553F9
:1049A0004133444657000442DE41AF417D4152410C
:1049B00030413845AA4403446043D04231421C4848
:1049C000A9473747C3464E46D545466163746F7263
:1049D00079205245534554008A48A1484F637420BA
:1049E0003238203230313700436F6D70696C656446
:1049F0003A2000286E6F6E652C2064656661756CC8
:104A00007420636F6E6669672900B0484F63742035
:104A1000323820323031372031323A35383A323577
:104A200000BC48CC48DC48EC48FD480D4973746133
:104A30007274002055706C6F616420696E20707212
:104A40006F67726573730015495A00205A3A00590E
:104A50000020593A00580020583A002B493A494C56
:104A6000494D32390050494E4441206572776165A5
:104A7000726D656E0047727A616E69652050494EAD
:104A800044410043616C656E74616E646F205049EF
:104A90004E44410052697363616C642E2050494E4C
:104AA0004441004E6168726976616E692050494EDA
:104AB00044410050494E44412048656174696E6725
:104AC0000054656D70204B616C69622E202020209F
:104AD000202020202000436965706C2E206B616CC3
:104AE0002E2020202020202020200043616C2E201A
:104AF00074656D702E202020202020202020200092
:104B000043616C2E2074656D702E202020202020A3
:104B100020202020005465706C2E206B616C2E20AC
:104B20002020202020202020200054656D702E2081
:104B300063616C2E20202020202020202020004B8C
:104B4000616C696272696572756E67204F4B004BCC
:104B5000616C69627261636A61204F4B0043616CF2
:104B60006962726163696F6E204F4B0043616C69CB
:104B70006272617A696F6E65204F4B004B616C69A0
:104B80006272616365204F4B0043616C69627261C0
:104B900074696F6E20646F6E65004B616C69627240
:104BA00069657265205A004B616C696272756A654D
:104BB000205A0043616C696272616E646F205A0012
:104BC00043616C696272616E646F205A004B616C64
:104BD000696272756A69205A0043616C6962726128
:104BE00074696E67205A00426564204F4B0053740D
:104BF0006F6C696B204F4B2E0042617365207072A1
:104C0000657061726164610050696174746F2066DF
:104C10006174746F2E00426564204F4B2E00426514
:104C20006420646F6E65004265642061756677611B
:104C300065726D656E0047727A616E696520737486
:104C40006F6C696B612E2E0043616C656E74616ED2
:104C5000646F20426173650052697363616C642EF6
:104C6000206C6574746F005A6168726976616E6950
:104C700020626564004265642048656174696E67FE
:104C800000417566776165726D656E204F4B004718
:104C9000727A616E6965204F4B2E0043616C656EC0
:104CA00074616D69656E746F2066696E616C2E004B
:104CB00052697363616C642E20636F6D706C6574F0
:104CC0006F005A6168726976616E69204F4B2E00E1
:104CD00048656174696E6720646F6E652E0041756A
:104CE00066776165726D656E0047727A616E69659F
:104CF0002E2E2E0043616C656E74616E646F2E2ED5
:104D00002E0052697363616C64616D656E746F2E01
:104D10002E2E005A6168726976616E69004865617D
:104D200074696E6700416B7475656C6C65730054D3
:104D3000796C6B6F20616B7475616C6E650041639B
:104D40007475616C0041747475616C6500506F75A9
:104D50007A6520616B7475616C6E6900437572725F
:104D6000656E74004265696D20447275636B2062E4
:104D7000656E75747A746500557A79746520707201
:104D80007A79206472756B7500557361646F206564
:104D90006E20696D70726573696F6E005573617412
:104DA00069206E656C6C61207374616D7061005078
:104DB0006F757A69746520626568656D20746973C2
:104DC0006B75005573656420647572696E67207039
:104DD00072696E7400416C6C650057737A797374F4
:104DE0006B6F00546F646F73005475747469005670
:104DF000736500416C6C00504944204B616C6962E2
:104E00002E20666572746967004B616C2E205049D4
:104E100044207A616B6F6E637A6F6E610043616CE0
:104E20002E20504944207465726D696E6164610082
:104E300043616C2E2050494420636F6D706C657423
:104E40006100504944206B616C2E20756B6F6E635E
:104E5000656E61005049442063616C2E2066696E66
:104E6000697368656400504944204B616C69622E27
:104E7000004B616C2E205049440043616C2E205041
:104E80004944202020202020202020202000436191
:104E90006C2E2050494400504944206B616C2E20F8
:104EA0002020202020202020202000504944206362
:104EB000616C2E2020202020202020202020004453
:104EC0007275636B20776569746572676568656E76
:104ED00000577A6E617769616E6965206472756BDF
:104EE00075005265616E7564617220696D707265DE
:104EF00073696F6E005374616D706120696E20720A
:104F0000697072657361004F626E6F766F76616E65
:104F100069207469736B7500526573756D696E678E
:104F2000207072696E7400447275636B20706175D5
:104F30007369657274004472756B207A6174727A59
:104F4000796D616E7900496D70726573696F6E205D
:104F5000656E207061757361005374616D706120BE
:104F6000696E207061757361005469736B20706F96
:104F70007A6173746176656E005072696E74207028
:104F80006175736564005072696E7465722064693E
:104F900073636F6E6E6563746564006933204D4B97
:104FA000322052616D7073206265726569742E00E3
:104FB0006933204D4B322052616D707320676F74DE
:104FC0006F7761006933204D4B322052616D7073F1
:104FD00020707265702E006933204D4B3220526173
:104FE0006D70732070726F6E74612E006933204D86
:104FF0004B322052616D7073206F6B006933204D0E
:105000004B322052616D70732072656164792E009D
:105010003A2000B34AA34A944A834A754A654A2A09
:105020004B154B004BEB4AD64AC14A894B7C4B6C23
:105030004B5D4B4F4B3F4B20202020202020202039
:105040002020202020202020202000203A2000D9CD
:105050004BCD4BC04BB34BA74B9A4B20202020206D
:105060002020202020202020202020202020200060
:105070001E4C164C084CF94BEE4BE74B754C674CED
:10508000584C484C364C274CD04CC24CB04C9B4CE6
:105090008F4C814C1D4D134D024DF44CE94CDE4CB0
:1050A00020202020202020202020202020002573C8
:1050B000002020002D2D3A2D2D0020002000200062
:1050C0004C002020002046002D2D2D003E5553423F
:1050D000005344002D2D00252020202020002020DA
:1050E000002020000120002020202D2D2D20002038
:1050F000205A002020000120005C4D4D4D454D3EC2
:105100004D2F4D254DC34DAF4D9C4D894D784D6470
:105110004DF34DEF4DE94DE34DDA4DD54D4D353065
:105120003000544E424E304E1D4E094EF74DAB4EA0
:10513000974E8E4E7A4E714E664E4731205A31351B
:10514000204631353030004739310047312058355D
:10515000302059313930204530204637303030004A
:10516000473930004D373032004D37303220430060
:105170004D3730322055004D373032004731205AFC
:105180003135204631353030004739310047312044
:1051900058353020593139302045302046373030AD
:1051A00030004D383300473930004D3834004D3130
:1051B000303420533000184F074FF54EE24ED14E99
:1051C000BF4E473930004731204531004D3832005D
:1051D0004D3833004D31303620532564004D323286
:1051E000302053256400794F694F594F464F364F51
:1051F000274F864FFC4FEC4FD74FC44FB04F9B4FBC
:10520000656E717565696E67202200446F6E65205A
:105210007072696E74696E672066696C65004E6FA6
:10522000204C696E65204E756D62657220776974D9
:105230006820636865636B73756D2C204C617374B3
:10524000204C696E653A20004E6F20436865636BA1
:1052500073756D2077697468206C696E65206E7552
:105260006D6265722C204C617374204C696E653AD6
:105270002000636865636B73756D206D69736D6184
:105280007463682C204C617374204C696E653A20FD
:10529000004C696E65204E756D62657220697320E1
:1052A0006E6F74204C617374204C696E65204E756E
:1052B0006D6265722B312C204C617374204C696EC9
:1052C000653A200053746F72656420736574746965
:1052D0006E677320726574726965766564004861F3
:1052E0007264636F6465642044656661756C7420E4
:1052F00053657474696E6773204C6F6164656400F4
:1053000022206661696C65643A2042756666657242
:105310002066756C6C2100220000524D38342058F4
:105320002059205A204500256920686F7572732026
:105330002569206D696E75746573000B5254494D73
:10534000454F55543A001E524852725291524D31B7
:1053500031300046756C6C20525820427566666587
:105360007200526573656E643A20004142474542BF
:10537000524F4348454E2E20005041524144412057
:10538000444520454D455247454E43494100494E0D
:105390002054494C542E004B494C4C45442E20007F
:1053A0005072696E7465722068616C7465642E2039
:1053B0006B696C6C28292063616C6C656421004703
:1053C0004553544F5050542E2000504152414441B7
:1053D0000041525245535441544F2E0053544F50A4
:1053E0005045442E20005072696E746572207374AB
:1053F0006F707065642064756520746F20657272CB
:105400006F72732E20466978207468652065727209
:105410006F7220616E6420757365204D39393920B3
:10542000746F20726573746172742E202854656DD8
:105430007065726174757265206973207265736539
:10544000742E20536574206974206166746572201F
:1054500072657374617274696E6729004D323231FE
:1054600020496E76616C6964206578747275646534
:105470007220004D32313820496E76616C696420AB
:10548000657874727564657220004D313039204939
:105490006E76616C696420657874727564657220DB
:1054A000004D31303520496E76616C696420657835
:1054B00074727564657220004D31303420496E7607
:1054C000616C69642065787472756465722000622D
:1054D00053975397538E53795397536B53A053DC81
:1054E00053DC53D153CA53DC53BF53E6535C54735C
:1054F000548A54A154B8545A206C6976652061646A
:105500006A757374206F7574206F662072616E67A0
:10551000652E2053657474696E6720746F20302E79
:1055200020436C69636B20746F20636F6E74696EC7
:1055300075652E005A206C6976652061646A757302
:1055400074206F7574206F662072616E67652E20FF
:1055500053657474696E6720746F20300020423A7E
:105560000020453A00543A000000544300006643CE
:1055700000005243000000C00000A0C09A99193EEC
:10558000000000C00000A0C09A99193E0000A04091
:105590000000A040000000400000564300006B43A4
:1055A0009AD95143FFFFFF0000211042206330844D
:1055B00040A550C660E770088129914AA16BB18C63
:1055C000C1ADD1CEE1EFF13112100273325222B5EA
:1055D000529442F772D662399318837BB35AA3BDB3
:1055E000D39CC3FFF3DEE36224433420040114E6BA
:1055F00064C774A44485546AA54BB528850995EE03
:10560000E5CFF5ACC58DD55336722611163006D7C9
:1056100076F6669556B4465BB77AA719973887DF52
:10562000F7FEE79DD7BCC7C448E5588668A7784011
:1056300008611802282338CCC9EDD98EE9AFF948A2
:105640008969990AA92BB9F55AD44AB77A966A7129
:105650001A500A333A122AFDDBDCCBBFFB9EEB79F2
:105660009B588B3BBB1AABA66C877CE44CC55C2279
:105670002C033C600C411CAEED8FFDECCDCDDD2A42
:10568000AD0BBD688D499D977EB66ED55EF44E1309
:105690003E322E511E700E9FFFBEEFDDDFFCCF1B92
:1056A000BF3AAF599F788F8891A981CAB1EBA10CFD
:1056B000D12DC14EF16FE18010A100C230E3200472
:1056C00050254046706760B9839893FBA3DAB33DD9
:1056D000C31CD37FE35EF3B1029012F322D23235C2
:1056E00042145277625672EAB5CBA5A89589856EA9
:1056F000F54FE52CD50DC5E234C324A01481046612
:1057000074476424540544DBA7FAB79987B8975FB8
:10571000E77EF71DC73CD7D326F2369106B0165761
:10572000667676154634564CD96DC90EF92FE9C800
:1057300099E9898AB9ABA94458654806782768C0B1
:1057400018E1088238A3287DCB5CDB3FEB1EFBF918
:105750008BD89BBBAB9ABB754A545A376A167AF101
:105760000AD01AB32A923A2EFD0FED6CDD4DCDAA68
:10577000BD8BADE89DC98D267C076C645C454CA251
:105780003C832CE01CC10C1FEF3EFF5DCF7CDF9BF8
:10579000AFBABFD98FF89F176E367E554E745E93A1
:1057A0002EB23ED10EF01E496E76616C69642062A5
:1057B000656420636F7272656374696F6E206D61DA
:1057C000747269782E20526573657474696E6720EF
:1057D000746F206964656E746974792E00496E7601
:1057E000616C69642062656420636F7272656374C2
:1057F000696F6E206D61747269782E20582F592060
:105800006178657320617265206661722066726FCF
:105810006D206265696E672070657270656E64697F
:1058200063756C61722E00496E76616C69642062EA
:10583000656420636F7272656374696F6E206D6159
:10584000747269782E205368696674206F757420AD
:105850006F662072616E67652E005A65726F2070E8
:105860006F696E7420636F7272656374696F6E3AEC
:1058700000496E76616C69642062656420636F72B2
:1058800072656374696F6E206D61747269782E2021
:105890004C656E677468206F6620746865205920B7
:1058A000766563746F72206F7574206F6620726105
:1058B0006E67652E005920766563746F72206C6583
:1058C0006E6774683A00496E76616C69642062653F
:1058D0006420636F7272656374696F6E206D6174AA
:1058E0007269782E204C656E677468206F6620742C
:1058F0006865205820766563746F72206F75742018
:105900006F662072616E67652E005820766563743D
:105910006F72206C656E6774683A00556E646566D8
:10592000696E65642062656420636F72726563747A
:10593000696F6E206D61747269782E00002C2000F2
:1059400041646A757374656420706F736974696FFC
:105950006E3A2000002C20683A002C20646D61789B
:105960003A005061727469616C20706F696E7420C6
:10597000657374696D6174656420726164697573BF
:1059800020746F6F20736D616C6C3A200000506161
:10599000727469616C20706F696E74206469616DE6
:1059A0006574657220746F6F20736D616C6C3A2042
:1059B00000746F70007269676874006C65667400CB
:1059C0007269676874006C65667400746F70006655
:1059D00061696C6564202D206E6F7420666F756E32
:1059E000640A007269676874006C65667400002C54
:1059F0002000496E697469616C20706F7369746905
:105A00006F6E3A200053442063617264206F6B0014
:105A10006F70656E526F6F74206661696C656400AB
:105A2000766F6C756D652E696E6974206661696C40
:105A3000656400534420696E6974206661696C0076
:105A4000055A105A205A4572726F723A00335A65DD
:105A500063686F3A005363687765726572205363B9
:105A600068722E3A004F73747265207363696563C0
:105A700069653A00496E636C696E2E2073657665C0
:105A800072613A00496E632E2072696C6576616EB0
:105A900074653A0054657A6B65207A6B6F73656E36
:105AA000693A0053657665726520736B65773A00D5
:105AB0004C6569636874657220536368722E3A009E
:105AC0004C656B6B696520736369656369653A0052
:105AD000496E636C696E2E206C69676572613A006D
