:100000000C94905F0C94C15F0C94C15F0C94C15F21
:100010000C94C15F0C94C15F0C94C15F0C94C15FE0
:100020000C94C15F0C94C15F0C94C15F0C94C15FD0
:100030000C94C15F0D947A570C94C15F0C94C15F0E
:100040000C94C15F0D94DE890C94C15F0C94C15F68
:100050000C94C15F0C94C15F0D948E240D942059B3
:100060000C94C15F0C9407DA0C94C15F0C94C15FCF
:100070000C94C15F0C94C15F0C94C15F0C94C15F80
:100080000C94C15F0C94C15F0C94C15F0C94C15F70
:100090000C94C15F0C94C15F0C94C15F0C94C15F60
:1000A0000C94C15F0C94C15F0C94C15F0C94C15F50
:1000B0000C94C15F0C94C15F0C94C15F0C94C15F40
:1000C0000C94C15F0C94C15F0C94C15F0C94C3D9B4
:1000D0000C94C15F0C94C15F0C94C15F0C94C15F20
:1000E0000C94C15FAC0134013801C60198015A017A
:1000F00072014A01AE013C0156012E015001EC0192
:1001000028012C01BE01B80178018001E8018201BB
:100110003601A801A601BE01C0019A01660186014F
:100120002A0148014E01C2013001DE015801B0012F
:100130007401F001D401BC01EE013001E001C801FD
:1001400094017C017E01BA01D001F201A0013201CB
:100150007A013A01E601F4015201C401D6018E018F
:100160008E018E01F601F601F6013E016401F601F1
:10017000E401EA01B6018401A4016A01DC018C01F9
:100180009C01084AD73B3BCE016E84BCBFFDC12F0A
:100190003D6C74319ABD56833DDA3D00C77F11BE78
:1001A000D9E4BB4C3E916BAAAABE000000803F057B
:1001B000A84CCDB2D44EB93836A9020C50B99186AC
:1001C00088083CA6AAAA2ABE000000803F07634216
:1001D00036B79BD8A71A39685618AEBAAB558C1DDE
:1001E0003CB7CC5763BD6DEDFD753EF6177231BF60
:1001F000000000803F08000000BE922449123EAB80
:10020000AAAA2ABECDCCCC4C3E00000080BEABAA30
:10021000AAAA3E00000000BF000000803F000000CE
:100220000000084178D3BB4387D1133D190E3CC36E
:10023000BD4282AD2B3E68EC8276BED98FE1A93EED
:100240004C80EFFFBE01C4FF7F3F000000000000B4
:100250000D946B560D9441580D9471560D9475562E
:100260000D94D3580D94946A0D94FD240D949456D6
:100270000D9419250D94686B0D9498250D94F86BC9
:100280000D9493BC0D94D5560D949F7E0D9432839E
:100290000D9446580D947A250D94A87E0D945058CF
:1002A0000D9478560D94AF6B0D9432790D94A02572
:1002B0000D946C580D9451250D942F560D94864431
:1002C0000D94DE630D9464680D94256C0D94AA560C
:1002D0000D94B17E0D9497960D94C3790D947A8107
:1002E0000D94656C0D946B250D947E580D94967E3F
:1002F0000D9480560D94496B0D94186A0D942F6AD5
:100300000D9486560D948E560D944B960D943C5834
:100310000D94AD7C0D941F460D94AD960D94F06B2D
:100320000D9448350D942B9B0D94C9580D94FA6685
:100330000D9442250D94A6560D94C7960D94C2AB0C
:100340000D94796A0D941E4F0D946B960D949C56E6
:100350000D9498560D94F7300D94EE240D94942539
:100360000D9474580D942B670D9408670D942D9679
:100370000D947C560D94416A0D94A1580D94AF567E
:100380000D94A2560D945A580D94E06B0D942825A7
:100390000D94BF580D94DC690D9401670D94F448D9
:1003A0000D94566A0D94B7660D9492580D94E86BAF
:1003B0000D948CA50D94DCC00D94A2960D946458F8
:1003C0000D94B5580D944F9A0D94026C0D94776B63
:1003D0000D948A560D9413960D9467560D94AB5850
:1003E0000D9488580D94666A0D94926B0D94166C5A
:1003F0000D947E304E414E494E495459494E46CD9A
:10040000CCCC3D0AD7233C17B7D13877CC2B3295CB
:1004100095E6241FB14F0A000020410000C84200A9
:10042000401C4620BCBE4CCA1B0E5AAEC59D745320
:1004300044207072696E74696E67206279746520F9
:1004400000426974746520616B7475616C697369CD
:100450006572656E2E0050726F737A65207A616BDB
:100460007475616C697A6F7761630041637475615B
:100470006C697A617220706F72206661766F7200AB
:10048000507265676120616767696F726E612E00E7
:1004900050726F73696D20616B7475616C697A75E8
:1004A0006A74652E00506C656173652075706772A3
:1004B0006164652E004E657565204669726D7761D1
:1004C00072652056657273696F6E20766572667507
:1004D00065676261723A005779737A6C61206E6F5A
:1004E000776120776572736A61206669726D7761E2
:1004F00072653A004E7565766F206669726D776138
:10050000726520646973706F6E69626C653A004E43
:10051000756F76612076657273696F6E65206465AC
:100520006C206669726D7761726520646973706FA3
:100530006E6962696C65005679736C61206E6F76C6
:1005400061207665727A65206669726D7761726581
:100550003A004E6577206669726D77617265207624
:10056000657273696F6E20617661696C61626C653A
:100570003A00756E64204B6E6F706620647275650C
:10058000636B656E004E616369736E696A20707299
:100590007A796369736B0050756C73617220656C56
:1005A000206D616E646F006520636C6963636172C6
:1005B00065206D616E6F706F6C610061207374698E
:1005C000736B6E65746520746C616369746B6F0026
:1005D000616E6420707265737320746865206B6E41
:1005E0006F620046696C616D656E742065696E6C42
:1005F0006567656E005770726F7761647A2066690F
:100600006C616D656E7400496E74726F64756369B8
:10061000722066696C616D656E746F00496E7365FA
:10062000726972652066696C616D656E746F0056E3
:100630006C6F7A74652066696C616D656E740049D3
:100640006E736572742066696C616D656E740046C8
:100650006172626520756E6B6C6172004B6F6C6FBE
:1006600072207A616E6965637A79737A2E00436FBE
:100670006C6F72206E6F20686F6D6F67656E656F4F
:1006800000436F6C6F7265206E6F6E207075726FB5
:10069000004261727661206E656E692063697374D1
:1006A0006100436F6C6F72206E6F7420636C6561C4
:1006B000720046696C2E206E696368742067656CF1
:1006C0006164656E004272616B2066696C616D6584
:1006D0006E74750046696C2E206E6F20696E7472A0
:1006E0006F64756369646F0046696C2E206E6F6E6F
:1006F00020636172696361746F0046696C616D6546
:100700006E74206E657A61766564656E0046696C0C
:10071000616D656E74206E6F74206C6F61646564CA
:10072000005765636873656C206F6B3F0057796D88
:1007300069616E61206F6B3F0043616D6269616446
:100740006F20636F72726563742E3F0043616D6248
:100750006961746F20636F72722E3F0056796D6508
:100760006E61206F6B3F004368616E676564206354
:100770006F72726563746C793F004C6164652046EA
:100780006172626500437A79737A637A2E206B6FA7
:100790006C6F72750043616D6269616E646F206396
:1007A0006F6C6F72004361726963616E646F206386
:1007B0006F6C6F72650043697374656E6920626166
:1007C000727679004C6F6164696E6720636F6C6F3D
:1007D00072005765636873656C206572666F6C673D
:1007E000722E210057796D69616E61206F6B210057
:1007F00043616D62696F20636F72726563746F002D
:1008000043616D62696F20726975736369746F21EA
:10081000005A6D656E612075737065736E6121009D
:100820004368616E67652073756363657373210048
:10083000456B737472756465720045787472757374
:100840006F72004573747275736F726500457874CA
:10085000727564657200576165686C656E205369D6
:1008600065204578747275646572005779626965B0
:10087000727A20656B7374727564657200456C657D
:10088000676972206578747275736F723A00536588
:100890006C657A696F6E61206573747275736F72BF
:1008A000653A005679626572746520657874727570
:1008B0006465723A0043686F6F736520657874727F
:1008C000756465723A004163746976652045787491
:1008D00072756465723A2000496E76616C696420B5
:1008E00065787472756465720046696C616D656ED9
:1008F000742061757377657266656E0057797375DC
:1009000077616D2066696C616D656E7400536F6C04
:1009100074616E646F2066696C616D656E746F00E2
:1009200052696C6173632E2066696C616D656E74CB
:100930006F005679736F7576616D2066696C616DB5
:10094000656E7400556E6C6F6164696E67206669D0
:100950006C616D656E74005A204F66667365740035
:10096000556E6B6E6F776E20636F6D6D616E643A5E
:100970002022004D32303020496E76616C6964204F
:10098000657874727564657220007A5F6D61783A7B
:1009900020007A5F6D696E3A2000795F6D61783A68
:1009A0002000795F6D696E3A2000785F6D61783A5A
:1009B00020006F70656E00545249474745524544C8
:1009C00000785F6D696E3A20005265706F727469CD
:1009D0006E6720656E6473746F70207374617475D4
:1009E000730020436F756E7420583A2000464952B8
:1009F0004D574152455F4E414D453A4D61726C69CC
:100A00006E2056312E302E323B20537072696E7438
:100A100065722F6772626C206D61736875702066F5
:100A20006F722067656E36204649524D57415245D8
:100A30005F55524C3A68747470733A2F2F6769741B
:100A40006875622E636F6D2F707275736133642FDA
:100A500050727573612D69332D506C75732F205052
:100A6000524F544F434F4C5F56455253494F4E3AA5
:100A7000312E30204D414348494E455F5459504531
:100A80003A6933204D4B324C2052616D70732045D2
:100A9000585452554445525F434F554E543A3120B5
:100AA000555549443A30303030303030302D3030C8
:100AB00030302D303030302D303030302D3030303F
:100AC0003030303030303030300A004F666600450C
:100AD0006E642066696C65206C697374004265679A
:100AE000696E2066696C65206C697374004B65697A
:100AF0006E65204265776567756E672E0053696E77
:100B0000206D6F76696D69656E746F004E657373E5
:100B1000756E206D6F76696D656E746F2E004E6F09
:100B2000206D6F76652E00447275636B20666F7260
:100B30007467657365747A7400577A6E6F77696548
:100B40006E6965206472756B7500526573756D69A9
:100B5000656E646F20696D70726573696F6E0052A7
:100B6000697072656E6469207374616D7061004FA5
:100B7000626E6F76656E69207469736B750052657D
:100B800073756D696E67207072696E74005761725B
:100B900074652061756620757365722E2E2E004572
:100BA00073706572616E646F206F7264656E6573D9
:100BB00000417474656E64656E646F207574656E53
:100BC0007465005761697420666F72207573657271
:100BD0002E2E2E005A2D4B616C69627269657275FA
:100BE0006E67206665686C67657363686C672E2046
:100BF00053656E736F72207A7520686F6368206129
:100C0000757367656C6F6573742E205761727465B8
:100C1000206175662052657365742E004B616C69A6
:100C2000627261636A61205A206E69657564616EE3
:100C3000612E2053656E736F7220646F746B2E206B
:100C40007A61207779736F6B6F2E20437A656B61C1
:100C50006D206E612072657365742E004E69766535
:100C60006C6163696F6E2066616C6C6164612E20DB
:100C700053656E736F722066756E63696F6E612067
:100C800064656D61736961646F2074656D70726114
:100C90006E6F2E204573706572616E646F20726591
:100CA0007365742E004C6976656C6C616D656E744D
:100CB0006F206C6574746F2066616C6C69746F2E44
:100CC000526973702073656E736F72652074726FF2
:100CD00070706F2070726573746F496E20617474E8
:100CE0006573612064692072657365742E004B61C1
:100CF0006C696272616365205A2073656C68616C0F
:100D0000612E2053656E736F72207365706E756C03
:100D1000207072696C6973207679736F6B6F2E2007
:100D200043656B616D206E612072657365742E0082
:100D3000426564206C6576656C696E6720666169E2
:100D40006C65642E2053656E736F722074726967D0
:100D5000676572656420746F6F20686967682E200C
:100D600057616974696E6720666F7220726573657A
:100D7000742E005A2D4B616C696272696572756ED2
:100D800067206665686C67657363686C672E2053BF
:100D9000656E736F72206E6963687420616E67653B
:100DA0007363686C6F7373656E2E20576172746520
:100DB000206175662052657365742E004B616C6905
:100DC000627261636A61206E69657564616E612E2D
:100DD0002053656E736F72206F646C61637A6F6EFF
:100DE00079206C75622075737A6B6F647A2E206B34
:100DF0006162656C2E20437A656B616D206E6120A7
:100E000072657365742E004E6976656C6163696FF7
:100E10006E2066616C6C6164612E2053656E736F29
:100E20007220646573636F6E65637461646F206FB5
:100E3000206361626C65732064616E61646F732E00
:100E4000204573706572616E646F2072657365749E
:100E50002E004C6976656C6C616D656E746F206CEC
:100E60006574746F2066616C6C69746F2E205365B5
:100E70006E736F726520646973636F6E2E206F20CE
:100E80004361766F2044616E6E2E20496E2061743E
:100E9000746573612064692072657365742E004BFC
:100EA000616C696272616365205A2073656C686168
:100EB0006C612E2053656E736F72206A65206F64BB
:100EC000706F6A656E79206E65626F2070726572F0
:100ED0007573656E79206B6162656C2E2043656B5E
:100EE000616D206E612072657365742E00426564C9
:100EF000206C6576656C696E67206661696C6564F7
:100F00002E2053656E736F7220646973636F6E6E0B
:100F10006563746564206F72206361626C65206232
:100F2000726F6B656E2E2057616974696E672066FB
:100F30006F722072657365742E005A2D4B616C2E92
:100F4000206665686C67657363686C672E205365FF
:100F50006E736F72206E6963687420617573676564
:100F60006C6F6573742E205363686D75747A69674E
:100F7000652044756573653F205761727465206113
:100F80007566205265736574004B616C69627261AD
:100F9000636A61206E69657564616E612E205365B8
:100FA0006E736F72206E696520646F746B6E616C16
:100FB0002E205A616E6965637A79737A2E2064797E
:100FC000737A613F20437A656B616D206E61207298
:100FD000657365742E004E6976656C6163696F6E2A
:100FE0002066616C6C6164612E2053656E736F7254
:100FF000206E6F2066756E63696F6E612E2045737B
:10100000636F6D62726F7320656E20426F717569D8
:101010002E3F204573706572616E646F2072657338
:1010200065742E004C6976656C6C616D656E746FCD
:10103000206C6574746F2066616C6C69746F2E4EE1
:101040006F5269737053656E736F72205265736966
:10105000647569207375207567656C6C6F3F2049F6
:101060006E206174746573612064692072657365B4
:10107000742E004B616C696272616365205A207343
:10108000656C68616C612E2053656E736F72206EA3
:10109000657365706E756C2E205A6E656369737426
:1010A000656E6120747279736B613F2043656B617B
:1010B0006D206E612072657365742E004265642038
:1010C0006C6576656C696E67206661696C65642E17
:1010D0002053656E736F72206469646E742074723D
:1010E00069676765722E20446562726973206F6E4E
:1010F000206E6F7A7A6C653F2057616974696E67FC
:1011000020666F722072657365742E0054656D7071
:101110002E204B616C696272696572756E6720661C
:1011200065727469672E204B6C69636B656E207500
:101130006D20776569746572207A752067656865CA
:101140006E2E00436965706C6E61206B616C696224
:101150007261636A61207A616B6F6E637A6F6E6130
:101160002E204B6F6E74796E75756A2070727A7965
:101170006369736B69656D0043616C696272616379
:101180006F6E2074656D7065726174757261207424
:1011900065726D696E6164612E2050726573696F4E
:1011A0006E6172207061726120636F6E74696E751A
:1011B00061722E0054617261747572612074656D84
:1011C0007065726174757261207465726D696E61AB
:1011D00074612E204661726520636C69636B2070B8
:1011E000657220636F6E74696E756172652E00544E
:1011F00065706C6F746E69206B616C69627261639B
:101200006520646F6B6F6E63656E612E20506F6B2F
:10121000726163756A746520737469736B656D20A0
:10122000746C616369746B612E0054656D706572D6
:1012300061747572652063616C6962726174696F53
:101240006E2069732066696E69736865642E204339
:101250006C69636B20746F20636F6E74696E756563
:101260002E0045696E656E204D6F6D656E7420624F
:10127000697474652E00456E206573706572610037
:10128000536F7370656E73696F6E652E2E2E0053EB
:101290006C6565702E2E2E005A2073686966742066
:1012A0006170706C6965643A000A000A002F002FB3
:1012B000040A002E0044656C6574696F6E206661D7
:1012C000696C65642C2046696C653A200046696C3F
:1012D000652064656C657465643A002E0020573A99
:1012E0000020453A00543A00A504900480046B04A1
:1012F0005604410400520537050F05F404D704B520
:1013000004504944204175746F74756E6520666998
:101310006E69736865642120507574207468652057
:101320006C617374204B702C204B6920616E6420BB
:101330004B6420636F6E7374616E74732066726F9A
:101340006D2061626F766520696E746F20436F6EE9
:1013500066696775726174696F6E2E6800504944E2
:10136000204175746F74756E65206661696C656483
:10137000212074696D656F75740020403A006F6BB1
:1013800020543A006F6B20423A0050494420417586
:10139000746F74756E65206661696C656421205494
:1013A000656D706572617475726520746F6F206809
:1013B00069676800204B643A2000204B693A20009E
:1013C000204B703A200020436C6173736963205096
:1013D000494420002054753A2000204B753A2000E3
:1013E000206D61783A2000206D696E3A20002064FB
:1013F0003A200020626961733A2000536574746971
:101400006E67732053746F7265640046696C616D1A
:10141000656E742073657474696E67733A204469ED
:101420007361626C6564002020204D3230302044AE
:101430000046696C616D656E742073657474696EC5
:1014400067733A002020204D323039205300417517
:10145000746F2D526574726163743A20533D30206D
:10146000746F2064697361626C652C203120746F25
:1014700020696E7465727072657420657874727517
:1014800064652D6F6E6C79206D6F76657320617366
:10149000207265747261637473206F722072656369
:1014A0006F766572696573002046002020204D32FA
:1014B00030382053005265636F7665723A20533D91
:1014C0004578747261206C656E67746820286D6D54
:1014D0002920463A537065656420286D6D2F6D296B
:1014E00000205A002046002020204D323037205363
:1014F00000526574726163743A20533D4C656E67A7
:10150000746820286D6D2920463A53706565642003
:10151000286D6D2F6D29205A3A205A4C6966742027
:10152000286D6D29002044002049002020204D33E3
:10153000303420500050494420686561746265640D
:101540002073657474696E67733A00204400204903
:10155000002020204D33303120500050494420736A
:10156000657474696E67733A00205A002059002030
:10157000204D323036205800486F6D65206F66660A
:1015800073657420286D6D293A00204500205A00AB
:1015900020590020580020420020540020204D32C5
:1015A0003035205300416476616E63656420766156
:1015B000726961626C65733A20533D4D696E2066B5
:1015C0006565647261746520286D6D2F73292C2008
:1015D000543D4D696E2074726176656C2066656558
:1015E000647261746520286D6D2F73292C20423D33
:1015F0006D696E696D756D207365676D656E7420BC
:1016000074696D6520286D73292C20583D6D6178B3
:10161000696D756D205859206A65726B20286D6D53
:101620002F73292C20205A3D6D6178696D756D20CE
:101630005A206A65726B20286D6D2F73292C20202B
:10164000453D6D6178696D756D2045206A65726BE9
:1016500020286D6D2F73290020540020204D32303A
:1016600034205300416363656C65726174696F6E09
:101670003A20533D616363656C65726174696F6E96
:101680002C20543D726574726163742061636365DC
:101690006C65726174696F6E00204500205A0020ED
:1016A000590020204D3230312058004D6178696D4D
:1016B000756D20416363656C65726174696F6E203E
:1016C000286D6D2F7332293A00204500205A0020E2
:1016D000590020204D3230332058004D6178696D1B
:1016E000756D2066656564726174657320286D6D23
:1016F0002F73293A00204500205A0020590020204D
:101700004D39322058005374657073207065722013
:10171000756E69743A00D005BB05A7059705850568
:1017200072053F062F061C060706F505E305A2060F
:10173000910681066E065C064F060D07FA06E8065E
:10174000D406C506B20667075C074C0739072D07A4
:101750002107C407B607A507950785077A0720085C
:1017600011080008F007E407D2074175746F0020E4
:10177000452F443D00416476616E6365204B3D001A
:101780004D084D0843083A0830084D08B508A3082D
:101790008E087D086B0856082200C608D808540039
:1017A000496E76616C6964205420636F64652E0015
:1017B000496E76616C6964204D20636F64652E000C
:1017C0004D32323020532569004409320920090D79
:1017D00009FC08E908203A20000057094C414E470F
:1017E0002053454C20464F52434544002200600997
:1017F00073098A0992099A09A209AA09B209B709C3
:10180000C109C909205A3A0020593A00E209204585
:101810003A00205A3A0020593A00583A00ED094D52
:101820003131332053002E002000CB0A20423A00F1
:1018300020453A00543A002042403A0020403A0005
:10184000202F003A00205400202F0020423A002090
:101850002F006F6B20543A002569206D696E2C2093
:1018600025692073656300CF0ADD0A1E0B1E0B0C71
:101870000BFD0A1E0BED0A7E0B6F0B5F0B4A0B393B
:101880000B270BC30BC30BB10B9F0BC30B8D0B496A
:101890006E76616C6964204D20636F6465004D65F0
:1018A000736820626564206C6576656C696E67207C
:1018B0006E6F74206163746976652E000A002020C3
:1018C000000A4D6561737572656420706F696E748E
:1018D000733A000A5A20736561726368206865690B
:1018E0006768743A20002C004E756D20582C593AC8
:1018F0002000476F20686F6D652066696E697368A8
:101900006564004D65736820626564206C6576656A
:101910006C696E67206163746976617465640055F3
:101920007073616D706C652066696E69736865645B
:1019300000426564206C6576656C696E6720636F34
:101940007272656374696F6E2066696E697368652B
:101950006400206D6963726F6E7300457863657310
:101960007369766520626564206C6576656C696E66
:101970006720636F7272656374696F6E3A2000420C
:10198000656420636F7272656374696F6E20646151
:101990007461206E6F742076616C69640A00426520
:1019A0006420636F7272656374696F6E2064617422
:1019B000612076616C69640A0062616279737465A2
:1019C00070206170706C69656400636C65616E2085
:1019D00075702066696E697368656420004D4553B3
:1019E000485F484F4D455F5A5F5345415243483A1F
:1019F00020004D65736820626564206C6576656CB7
:101A0000696E67207768696C65206C6F6F702066FF
:101A1000696E69736865642E00006D657368206285
:101A20006564206C6576656C696E673A20000A0013
:101A3000593A200000583A2000300DEE0CA50C5CFD
:101A40000C1C0CD40BED0E9F0E520E070EBC0D732A
:101A50000DBC1073102410D60F890F3A0F3A206E68
:101A60006F20787920636C616D70696E670A003A47
:101A700020787920636C616D7065642E0A00002CFB
:101A80002063616C6962726174696F6E207A3A20BA
:101A900000426564206C6576656C696E672C207009
:101AA0006F696E743A2000005A206A697474657216
:101AB00020646174612066726F6D205A2063616CCE
:101AC0002E206E6F742076616C69642E0A005A2095
:101AD0006A697474657220646174612066726F6DE6
:101AE000205A2063616C2E2076616C69642E0A0096
:101AF0004E6F20636C616D70696E6720666F722037
:101B000066697273742063616C6962726174696F73
:101B10006E20706F696E742E0A00466972737420AD
:101B200063616C6962726174696F6E20706F696E57
:101B30007420636C616D7065642E0A004732382032
:101B4000573000473238205730002A12EF11B411B5
:101B5000781143110C1154656D7065726174757262
:101B6000652063616C6962726174696F6E20646F75
:101B70006E652E20436F6E74696E7565207769748B
:101B800068207072657373696E6720746865206B76
:101B90006E6F622E0000205A2073686966742028D8
:101BA0006D6D293A0054656D70657261747572656A
:101BB0003A2000002F3600537465703A2000005A16
:101BC00045524F3A20000050494E44412070726FF8
:101BD00062652063616C6962726174696F6E207303
:101BE0007461727400473238205730000A00205A5E
:101BF0003A200020593A200020583A20008F128FB6
:101C000012801276128F126212000043616C6375AB
:101C10006C617465206F666673657420616E642004
:101C2000736B65772072657475726E696E6720726A
:101C30006573756C743A000000292C206572726F10
:101C4000723A20002C2000293B2074617267657471
:101C50003A2028002C2000293B206D6561737572A5
:101C600065642D636F727265637465643A20280041
:101C70002C20006D656173757265643A20280070D0
:101C80006F696E74202300446966666572656E63D1
:101C90006520616674657220636F72726563746932
:101CA0006F6E3A2000002C200063656E7465722C04
:101CB0002061646A75737465643A2000002C20000A
:101CC0005920766563746F722C2061646A75737431
:101CD00065643A2000002C20005820766563746FFC
:101CE000722C2061646A75737465643A2000006325
:101CF0006E74725B315D3A0000636E74725B305DCE
:101D00003A0046696E616C20636E74722076616C75
:101D10007565733A0000000077793A0000636E74CD
:101D2000725B315D3A00005765696768745F793AA4
:101D3000000077783A0000636E74725B305D3A00A1
:101D4000005765696768745F783A00005665727974
:101D5000206C6974746C6520736B6577206465749E
:101D600065637465642E204F7274686F676F6E616F
:101D70006C697A696E672074686520617865732E76
:101D800000004D61782E206572726F722065756358
:101D90006C696469616E3A004D61782E20657272DB
:101DA0006F7220593A004D61782E206572726F7201
:101DB00020583A004D61782E206572726F72733A26
:101DC0000000002C206572726F7220593A20002C9E
:101DD000206572726F7220583A20006572726F72BD
:101DE0003A200029002C2000293B2074617267658D
:101DF000743A2028002C2000293B20636F72726502
:101E0000637465643A2028002C20006D6561737549
:101E10007265643A202800002C206572726F72206F
:101E20003E206D61782E206572726F722065756339
:101E30006C696469616E00506F696E74206E6F74B6
:101E4000206F6E20666972737420726F77002C2089
:101E50006572726F722059203E206D61782E206568
:101E600072726F722059002C206572726F72205846
:101E7000203E206D61782E206572726F72205800AE
:101E80002C2077656967746820593A2000506F6983
:101E90006E74206F6E20666972737420726F7700A3
:101EA0003A00706F696E742023004572726F722061
:101EB000616674657220636F7272656374696F6EB8
:101EC0003A2000002C200063656E746572206E65F8
:101ED000772C20696E7665727465643A2000002C58
:101EE00020005920766563746F72206E65772C2010
:101EF000696E7665727465643A2000002C20005883
:101F000020766563746F72206E65772C20696E761B
:101F100065727465643A2000002C2000636F727251
:101F2000656374696F6E20616E676C65733A20003B
:101F3000002C2000636F7272656374656420616EAB
:101F4000676C65733A2000002C2000636F72726525
:101F50006374656420782F793A2000002C20002CCF
:101F600020002C20003B20636F7272656374696FE0
:101F70006E20766563746F723A20006974657261D1
:101F800074696F6E3A200000292C206572726F729E
:101F90003A20002C2000293B207461726765743A56
:101FA0002028002C2000206D656173757265643AED
:101FB000202800706F696E74202300002C200063BD
:101FC000656E7465722C20696E697469616C3A2063
:101FD00000002C20005920766563746F722C2069F4
:101FE0006E697469616C3A2000002C2000582076DC
:101FF0006563746F722C20696E697469616C3A2034
:102000000063616C63756C617465206D6163686900
:102010006E6520736B657720616E64206F666673F2
:102020006574204C53005374616E64617264656919
:102030006E7374656C6C756E67656E20777572640F
:10204000656E207A757275636B67657365747A74F3
:1020500000557374617769656E696120646F6D798D
:102060009C6C6E6500416A757374657320706F7245
:10207000206465666563746F206361726761646F75
:10208000732E0053657474616767692070726564AC
:102090006566696E697469206361726963617469F8
:1020A0000044656661756C746E69206E617374615D
:1020B00076656E69206E616872616E6F0044656658
:1020C00061756C742073657474696E6773206C6FCE
:1020D000616465640054656D706572617475722029
:1020E0007775726465206E69636874206B616C69D2
:1020F00062726965727400436965706C6E61206B11
:10210000616C69627261636A61206E6965206279DF
:102110006C612070727A6570726F7761647A6F6E2D
:1021200061004C612074656D7065726174757261D7
:102130002064652063616C6962726163696F6E20FF
:102140006E6F206861207369646F20616A757374B3
:102150006164610054617261747572612064656CC0
:102160006C612074656D7065726174757261206E4A
:102170006F6E20616E636F7261206573656775694C
:102180007461005469736B61726E61206E6562796F
:102190006C61207465706C6F746E65207A6B616C15
:1021A0006962726F76616E610054656D706572610F
:1021B000747572652063616C6962726174696F6EB7
:1021C00020686173206E6F74206265656E20727581
:1021D0006E20796574004465722041627374616E8B
:1021E00064207A7769736368656E20646572205332
:1021F0007069747A65206465722044756573652022
:10220000756E642064657220426564206973742071
:102210006E6F6368206E696368742065696E6765B8
:102220007374656C6C742E20426974746520666FDB
:102230006C67656E205369652064656D2048616E2A
:1022400064627563682C20466972737420737465C8
:1022500070732C2073656374696F6E2046697273A6
:1022600074206C617965722063616C69627261745B
:10227000696F6E2E004F646C65676C6F73632064CA
:1022800079737A79206F6420706F646B6C61646B12
:1022900069206E6965206A65737420736B616C696F
:1022A00062726F77616E612E20506F737465707506
:1022B0006A207A676F646E6965207A20696E73742C
:1022C00072756B636A6120726F7A647A69616C20DF
:1022D0005A61637A796E616D792C20706F64726FC8
:1022E0007A647A69616C204B616C69627261636ABD
:1022F00061207069657277737A656A20776172739D
:102300007477792E0044697374616E636961206526
:102310006E747265206C612070756E7461206465E6
:10232000206C6120626F7175696C6C612079206C22
:1023300061207375706572666963696520646520E4
:102340006C612063616D61206E6F2066696A6164F3
:10235000612061756E2E20506F72206661766F72FB
:10236000207369676120656C206D616E75616C2CEE
:10237000206361706974756C6F2046697273742094
:1023800073746570732C2073656363696F6E204688
:1023900069727374206C617965722063616C696223
:1023A000726174696F6E2E0044697374616E7A6134
:1023B00020747261206C612070756E746120646598
:1023C0006C6C277567656C6C6F2065206C61207381
:1023D0007570657266696369652064656C206C65FB
:1023E00074746F206E6F6E20616E636F726120690E
:1023F0006D706F7374612E20536920707265676110
:10240000206469207365677569726520696C206D49
:10241000616E75616C652C2063617069746F6C6F9F
:102420002046697273742073746570732C20736511
:102430007A696F6E65204669727374206C61796584
:10244000722063616C6962726174696F6E2E004EF6
:10245000656E69207A6B616C6962726F76616E611C
:1024600020767A64616C656E6F7374207472797310
:102470006B79206F64207469736B6F766520706F61
:10248000646C6F7A6B792E20506F73747570756AF7
:1024900074652070726F73696D20706F646C652055
:1024A0006D616E75616C752C206B617069746F6CF9
:1024B00061205A6163696E616D652C206F6473746D
:1024C00061766563204E6173746176656E69207014
:1024D00072766E69207672737476792E0044697311
:1024E00074616E6365206265747765656E207469DA
:1024F00070206F6620746865206E6F7A7A6C652034
:10250000616E64207468652062656420737572660C
:1025100061636520686173206E6F74206265656E0B
:1025200020736574207965742E20506C6561736525
:1025300020666F6C6C6F7720746865206D616E75B6
:10254000616C2C20636861707465722046697273D7
:10255000742073746570732C2073656374696F6E77
:10256000204669727374206C617965722063616CB6
:102570006962726174696F6E2E00446572204472E4
:1025800075636B6572207775726465206E6F636822
:10259000206E69636874206B616C69627269657230
:1025A000742E20426974746520666F6C67656E20B6
:1025B0005369652064656D2048616E646275636867
:1025C0002C204B61706974656C20466972737420AD
:1025D00073746570732C2041627363686E697474E0
:1025E0002043616C6962726174696F6E20666C6F02
:1025F000772E004472756B61726B61206E69652085
:102600007A6F7374616C61206A65737A637A65208E
:10261000736B616C6962726F77616E612E205072AC
:102620006F737A65206B6965726F77616320736978
:102630006520696E737472756B636A612C20726FAA
:102640007A647A69616C205A61637A796E616D7916
:102650002C20706F64726F7A647A69616C205365A4
:102660006C66746573742E00496D707265736F7259
:1026700061206E6F20657374612063616C696272A2
:1026800061646120746F64617669612E20506F729D
:10269000206661766F72207573617220656C206DA3
:1026A000616E75616C2C20656C2063617069747556
:1026B0006C6F2046697273742073746570732C207C
:1026C00073656C656363696F6E2043616C696272E8
:1026D0006174696F6E20666C6F772E005374616D44
:1026E00070616E746520616E636F7261206E6F6ED3
:1026F0002063616C6962726174612E20536920707D
:102700007265676120646920736567756972652009
:10271000696C206D616E75616C652C2063617069F8
:10272000746F6C6F205052494D49205041535349AA
:102730002C2073657A696F6E652064656C6C61200E
:1027400063616C696272617A696F6E652E005469AB
:10275000736B61726E61206E6562796C61206A656F
:10276000737465207A6B616C6962726F76616E61F9
:102770002E20506F73747570756A74652070726F57
:1027800073696D20706F646C65206D616E75616C2E
:10279000752C206B617069746F6C61205A6163697C
:1027A0006E616D652C206F64737461766563205073
:1027B0006F73747570206B616C6962726163652EF2
:1027C000005072696E74657220686173206E6F7458
:1027D000206265656E2063616C6962726174656414
:1027E000207965742E20506C6561736520666F6C6E
:1027F0006C6F7720746865206D616E75616C2C203C
:1028000063686170746572204669727374207374B2
:102810006570732C2073656374696F6E2043616CFF
:102820006962726174696F6E20666C6F772E00202A
:1028300020506C616E6E6572427566666572427993
:102840007465733A20002046726565204D656D6F92
:1028500072793A2000207C20417574686F723A20AA
:1028600000204C61737420557064617465643A2073
:102870000020536F667477617265205265736574CA
:1028800000205761746368646F67205265736574D4
:10289000002042726F776E206F75742052657365E9
:1028A00074002045787465726E616C2052657365A2
:1028B0007400506F7765725570006572726F722088
:1028C00077726974696E6720746F2066696C650041
:1028D000656E6473746F7073206869743A20004485
:1028E0006F6E6520736176696E672066696C652E10
:1028F000006F6B00202D20496E76616C6964206545
:1029000078747275646572206E756D6265722021CF
:1029100000436F6E74696E75652077697468206115
:102920006E6F7468657220626F7764656E3F002514
:1029300000202020202020002020202020200045D2
:10294000524153494E4720616C6C206461746100B0
:10295000466163746F72792052455345540050525A
:102960005553413344465700BD20A12083206520A4
:1029700051202620A921832154212221F720D5206E
:10298000DD244F24A82305237522D621C1274E27F5
:10299000DC266826F3257A252020202033442020B9
:1029A0005072696E746572732020202000202020F0
:1029B00020436C6F6E656420507275736120202017
:1029C0002000466163746F7279205245534554006C
:1029D0002F2846284F637420323920323031370097
:1029E000436F6D70696C65643A20002847656F66B7
:1029F000662053696D2C2064656661756C74206374
:102A00006F6E666967290055284F6374203239203C
:102A1000323031372031363A34383A323800612892
:102A2000712881289128A228B228737461727400D9
:102A300020202020334420205072696E7465727308
:102A4000202020200020202020436C6F6E65642011
:102A5000507275736120202020002055706C6F61CA
:102A60006420696E2070726F677265737300BA2894
:102A70005A00205A3A00590020593A00580020586C
:102A80003A00D028DF28F1284D32390020766F6EC9
:102A9000203900207A203900206465203900207315
:102AA00075203900207A203900206F662039004DCA
:102AB000657373656E206465722052656665726524
:102AC0006E7A686F65686520646573204B616C6918
:102AD000627269657270756E6B746573004F6B72AC
:102AE00065736C616D207779736F6B6F7363206FA3
:102AF000646E69657369656E69612070756E6B746B
:102B000075206B616C6962726163796A6E65676F6B
:102B1000004D65646972206C6120616C747572612E
:102B20002064656C2070756E746F206465206C6124
:102B30002063616C6962726163696F6E004D6973D5
:102B40007572617265206C27616C74657A7A612098
:102B50006469207269666572696D656E746F206460
:102B6000656C2070756E746F2064692063616C6998
:102B70006272617A696F6E65004D6572696D20726F
:102B800065666572656E636E69207679736B752014
:102B90006B616C69627261636E69686F20626F64F9
:102BA00075004D6561737572696E67207265666543
:102BB00072656E636520686569676874206F66205A
:102BC00063616C6962726174696F6E20706F696EA7
:102BD000740020746F6F206C6F6E6720657874725C
:102BE0007573696F6E2070726576656E74656400CA
:102BF00020636F6C6420657874727573696F6E20E2
:102C000070726576656E74656400002C2000416406
:102C10006A757374656420706F736974696F6E3A56
:102C20002000002C20683A002C20646D61783A0066
:102C30005061727469616C20706F696E7420657385
:102C400074696D6174656420726164697573207460
:102C50006F6F20736D616C6C3A200000506172746C
:102C600069616C20706F696E74206469616D657450
:102C7000657220746F6F20736D616C6C3A20007404
:102C80006F70007269676874006C656674007269C1
:102C9000676874006C65667400746F7000666169C3
:102CA0006C6564202D206E6F7420666F756E640AEB
:102CB000007269676874006C65667400002C2000FF
:102CC000496E697469616C20706F736974696F6EA5
:102CD0003A2000457872656D65207370616E206FD3
:102CE0006620746865205A2076616C7565732100D2
:102CF000A92AA42A9E2A982A932A8C2AA22B792BC5
:102D00003D2B112BDD2AAF2AD22BF02B656E71756E
:102D100065696E67202200446F6E65207072696E6F
:102D200074696E672066696C65004E6F204C696E31
:102D300065204E756D6265722077697468206368DE
:102D400065636B73756D2C204C617374204C696ED8
:102D5000653A20004E6F20436865636B73756D2084
:102D600077697468206C696E65206E756D62657236
:102D70002C204C617374204C696E653A20006368A6
:102D800065636B73756D206D69736D617463682C19
:102D9000204C617374204C696E653A20004C696E5A
:102DA00065204E756D626572206973206E6F7420A8
:102DB0004C617374204C696E65204E756D6265724E
:102DC0002B312C204C617374204C696E653A2000C5
:102DD000497374204661726265207265696E3F00B6
:102DE000437A79206B6F6C6F72206A65737420630D
:102DF0007A797374793F00457320656C206E756530
:102E0000766F20636F6C6F72206E697469646F3FB8
:102E100000496C20636F6C6F7265206527206E69B6
:102E20007469646F3F004A65206261727661206355
:102E3000697374613F00497320636F6C6F72206324
:102E40006C6561723F0053746F72656420736574C2
:102E500074696E6773207265747269657665640063
:102E600048617264636F6465642044656661756C73
:102E7000742053657474696E6773204C6F61646568
:102E8000640022206661696C65643A20427566665A
:102E900065722066756C6C210022000C2D2569205E
:102EA000686F757273202569206D696E757465731E
:102EB00000172D54494D454F55543A002A2D542D95
:102EC0007E2D9D2D4D3131300046756C6C20525851
:102ED0002042756666657200362E262E112EF72D5D
:102EE000E02DD02D49737420646572205363686CA3
:102EF000697474656E2067616E7A206F62656E3FDB
:102F0000004F626120776F7A6B6920646F6A656336
:102F100068616C7920646F20676F726E656A2072D9
:102F2000616D793F00436172726F73205A20697A34
:102F3000712E2F6465722E20657374616E2061722C
:102F400072696261206D6178696D6F3F004920632D
:102F5000617272656C6C69205A2073696E2F6465AA
:102F60007320736F6E6F20616C74657A7A61206D67
:102F700061783F00446F6A656C79206F6261205A06
:102F800020766F7A696B79206B7E686F726E696DDF
:102F90007520646F72617A753F00417265206C65BF
:102FA000667420616E64207269676874205A7E635B
:102FB000617272696167657320616C6C2075703F26
:102FC00000426974746520656E746665726E656E24
:102FD0002053696520756562657273746568656EF6
:102FE0006465732046696C616D656E7420766F6EE2
:102FF000206465722044756573652E204B6C69638F
:103000006B656E2077656E6E207361756265722EDA
:1030100000446C61207072617769646C2E206B6172
:103020006C69627261636A692070726F737A65207D
:103030006F637A7973636963206479737A652E208C
:10304000506F74772E2067757A696B69656D2E00F5
:103050004C696D7069617220626F7175696C6C6129
:1030600020706172612063616C6962726163696F73
:103070006E2E20436C69636B206375616E646F20F4
:103080006163616265732E0050756C697265206CB6
:10309000277567656C6C6F20706572206C612063AA
:1030A000616C696272617A696F6E652C20706F69FC
:1030B000206661726520636C69636B2E0050726FCD
:1030C0002075737065736E6F75206B616C696272C9
:1030D000616369206F636973746574652070726FD2
:1030E00073696D207469736B6F766F752074727974
:1030F000736B752E20506F74767264746520746CD7
:10310000616369746B656D2E00506C656173652039
:10311000636C65616E20746865206E6F7A7A6C6589
:1031200020666F722063616C6962726174696F6E90
:103130002E20436C69636B207768656E20646F6E28
:10314000652E004B616C696272696572656E2076EE
:103150006F6E2058595A2E2044726568656E205350
:1031600069652064656E204B6E6F706620626973BE
:1031700020646572206F6265726520416E736368BA
:103180006C61672065727265696368742077697223
:10319000642E204B6C69636B656E2077656E6E20C4
:1031A00067616E7A206F62656E2E004B616C69629A
:1031B0007261636A612058595A2E2050727A656B89
:1031C0007265632067616C6B652C20616279207089
:1031D000727A6573756E6163206F73205A20646F15
:1031E00020676F726E796368206B72616E636F77B0
:1031F000656B2E204E616369736E696A2C2062795B
:1032000020706F7477696572647A69632E00436118
:103210006C696272616E646F2058595A2E2047693A
:10322000726120656C20626F746F6E2070617261D4
:1032300020737562697220656C20636172726F2001
:103240005A20686173746120676F6C7065207069C3
:10325000657A6173207375706572696F7261732E20
:1032600020446573707565732068617A20636C69AA
:10327000632E0043616C696272617A696F6E6520CA
:1032800058595A2E2052756F74617265206C6120F6
:103290006D616E6F706F6C612070657220616C7A09
:1032A00061726520696C2063617272656C6C6F205D
:1032B0005A2066696E6F20616C6C27616C74657A48
:1032C0007A61206D617373696D612E20436C69634F
:1032D0006B20706572207465726D696E6172652E07
:1032E000004B616C6962726163652058595A2E20E7
:1032F0004F746163656E696D20746C616369746B92
:103300006120706F73756E7465205A206F7375201D
:10331000617A206B7E686F726E696D7520646F7262
:10332000617A752E20506F74767264746520746CA7
:10333000616369746B656D2E0043616C69627261D3
:1033400074696E672058595A2E20526F74617465E3
:1033500020746865206B6E6F6220746F206D6F76CD
:103360006520746865205A206361727269616765BF
:1033700020757020746F2074686520656E642073FA
:10338000746F70706572732E20436C69636B207765
:1033900068656E20646F6E652E004B616C696272A9
:1033A000696572656E20766F6E205A2E20447265B4
:1033B00068656E205369652064656E204B6E6F7082
:1033C000662062697320646572206F626572652091
:1033D000416E7363686C61672065727265696368CA
:1033E0007420776972642E204B6C69636B656E2064
:1033F00077656E6E2067616E7A206F62656E2E0053
:103400004B616C69627261636A61205A2E2050724E
:103410007A656B7265632067616C6B652C206162F5
:10342000792070727A6573756E6163206F73205AAC
:1034300020646F20676F726E796368206B72616EB3
:10344000636F77656B2E204E616369736E696A2CBA
:1034500020627920706F7477696572647A69632E6F
:103460000043616C696272616E646F205A2E20475E
:1034700069726120656C20626F746F6E207061727A
:103480006120737562697220656C20636172726F6E
:10349000205A20686173746120676F6C70652070BA
:1034A00069657A6173207375706572696F72617393
:1034B0002E20446573707565732068617A20636C93
:1034C00069632E0043616C696272617A696F6E652F
:1034D000205A2E2052756F74617265206C61206DC8
:1034E000616E6F706F6C612070657220616C7A61C3
:1034F000726520696C2063617272656C6C6F205A12
:103500002066696E6F20616C6C27616C74657A7AD5
:1035100061206D617373696D612E20436C69636B0B
:1035200020706572207465726D696E6172652E001F
:103530004B616C696272616365205A2E204F746121
:1035400063656E696D20746C616369746B61207072
:103550006F73756E7465205A206F737520617A20C1
:103560006B7E686F726E696D7520646F72617A75BB
:103570002E20506F74767264746520746C61636978
:10358000746B656D2E0043616C6962726174696E63
:1035900067205A2E20526F7461746520746865200C
:1035A0006B6E6F6220746F206D6F76652074686536
:1035B000205A20636172726961676520757020749A
:1035C0006F2074686520656E642073746F70706519
:1035D00072732E20436C69636B207768656E20647C
:1035E0006F6E652E0057617274656E20617566207E
:1035F00041626B7565686C756E6720766F6E2048EA
:10360000656174657220756E64204265642E004F9A
:10361000637A656B6977616E6965206E6120777981
:1036200063686C6F647A656E6965206479737A7912
:10363000206920706F646B6C61646B692E00457348
:10364000706572616E646F20656E667269616D6926
:10365000656E746F206465206C612063616D61200C
:10366000792064656C206578747275736F722E00B2
:10367000496E206174746573612064656C207261A9
:10368000666672656464616D656E746F2064656CF6
:103690006C612074657374696E6120652064656C6B
:1036A0002070696174746F0043656B616E69206E90
:1036B00061207A63686C61646E75746920747279D4
:1036C000736B79206120706F646C6F7A6B792E0058
:1036D00057616974696E6720666F72206E6F7A7ABF
:1036E0006C6520616E642062656420636F6F6C6935
:1036F0006E67004974657261636A61200052656992
:103700007465726163696F6E2000526569746572D9
:10371000617A696F6E652000497465726163652026
:1037200000497465726174696F6E200058595A209F
:103730004B616C696272696572756E6720696E2093
:103740004F72646E756E672E205363686965666894
:103750006569742077697264206175746F6D617436
:1037600069736368206B6F72726967696572742E22
:10377000004B616C69627261636A612058595A201A
:103780007072617769646C6F77612E20536B6F7311
:10379000792062656461206175746F6D617479630D
:1037A0007A6E6965207779726F776E616E652070C9
:1037B000727A79206472756B752E0043616C696250
:1037C000726163696F6E2058595A20636F72726517
:1037D0006374612E204C6120696E636C696E616355
:1037E000696F6E20736520636F72726567697261BD
:1037F000206175746F6D61746963616D656E746568
:103800002E0043616C696272617A696F6E2058594B
:103810005A20636F7272657474612E204C6120644B
:103820006973746F7273696F6E6520766572726109
:1038300027206175746F6D61746963616D656E7465
:103840006520636F6D70656E736174612E004B61EE
:103850006C6962726163652058595A207620706FD6
:103860007261646B752E205A6B6F73656E6920628E
:10387000756465206175746F6D617469636B79201F
:103880007679726F766E616E6F20707269207469DE
:10389000736B752E0058595A2063616C69627261AE
:1038A00074696F6E20616C6C2072696768742E2079
:1038B000536B65772077696C6C20626520636F724B
:1038C000726563746564206175746F6D617469639A
:1038D000616C6C792E0058595A204B616C69627288
:1038E000696572756E6720696E204F72646E756EC1
:1038F000672E20582F592041636873656E207369C5
:103900006E64206574776173207363686965662EE1
:10391000004B616C69627261636A612058595A2078
:103920007072617769646C6F77612E204F7369657F
:1039300020582F59206C656B6B6F20736B6F736E03
:10394000652E20446F62726120726F626F74612114
:103950000043616C6962726163696F6E2058595AE5
:1039600020636F7272656374612E204C6F732065E3
:103970006A65732058202F205920657374616E206A
:103980006C69676572616D656E746520696E636CE4
:10399000696E61646F732E204275656E207472616A
:1039A00062616A6F210043616C696272617A696F5A
:1039B0006E2058595A20636F7272657474612E209C
:1039C0004173736920582F59206C65676765726D64
:1039D000656E74652073746F7274692E2042656E13
:1039E00020666174746F21004B616C69627261635F
:1039F000652058595A207620706F7261646B752E5D
:103A000020582F59206F7379206D69726E65207A66
:103A10006B6F73656E652E20446F627261207072E9
:103A2000616365210058595A2063616C6962726153
:103A300074696F6E20616C6C2072696768742E20E7
:103A4000582F5920617865732061726520736C6905
:103A50006768746C7920736B657765642E20476F97
:103A60006F64206A6F62210058595A2D4B616C694E
:103A70006272696572756E67206F6B2E20582F59C0
:103A80002D41636873656E2073696E642073656E83
:103A90006B7265636874207A7565696E616E6465C2
:103AA000722E20476C7565636B77756E7363682142
:103AB000004B616C69627261636A612058595A20D7
:103AC0006F6B2E204F73696520582F59207361202A
:103AD00070726F73746F7061646C652E20477261D1
:103AE00074756C61636A65210043616C696272611F
:103AF00063696F6E2058595A206F6B2E20456A6596
:103B00007320582F592070657270656E64696375F3
:103B10006C617265732E2046656C696369746163BC
:103B2000696F6E6573210043616C696272617A69C5
:103B30006F6E652058595A204F4B2E20476C6920D4
:103B40006173736920582F5920736F6E6F207065F1
:103B50007270656E6469636F6C6172692E20436F69
:103B60006D706C696D656E746921004B616C696282
:103B7000726163652058595A207620706F726164B3
:103B80006B752E20582F59206F7379206A736F75CB
:103B9000206B6F6C6D652E2047726174756C756A51
:103BA00069210058595A2063616C696272617469B5
:103BB0006F6E206F6B2E20582F592061786573200F
:103BC0006172652070657270656E646963756C61A1
:103BD000722E20436F6E67726174756C6174696FC9
:103BE0006E73210058595A2D4B616C696272696578
:103BF00072756E6720756E67656E61752E204C69F3
:103C00006E6B657220766F726465726572204B61AF
:103C10006C69627269657270756E6B742069737419
:103C2000207A75207765697420766F726E652E0034
:103C30004B616C69627261636A612058595A206EE7
:103C40006965646F6B6C61646E612E204C65777979
:103C50002070727A65646E692070756E6B74207A5C
:103C600062797420777973756E6965747920646FF1
:103C70002070727A6F64752E0043616C69627261A4
:103C80007A696F6E2058595A20636F6D70726F6D2C
:103C900065746964612E2050756E746F2064656C64
:103CA000616E7465726F20697A7175696572646F8F
:103CB000206E6F20616C63616E7A61626C652E00AC
:103CC00043616C696272617A696F6E652058595AF6
:103CD00020636F6D70726F6D657373612E20507508
:103CE0006E746F20616E746572696F72652073699E
:103CF0006E697374726F206E6F6E20726167676990
:103D0000756E676962696C652E004B616C696272E1
:103D10006163652058595A206E65707265736E61D3
:103D20002E204C65767920707265646E6920626F12
:103D300064206D6F63207670726564752E0058592B
:103D40005A2063616C6962726174696F6E20636F7F
:103D50006D70726F6D697365642E204C656674209A
:103D600066726F6E742063616C6962726174696FF0
:103D70006E20706F696E74206E6F7420726561635F
:103D80006861626C652E0058595A2D4B616C6962EE
:103D900072696572756E6720756E67656E61752EE6
:103DA000205265636874657220766F72646572650F
:103DB00072204B616C69627269657270756E6B74AA
:103DC00020697374207A75207765697420766F7224
:103DD0006E652E004B616C69627261636A61205886
:103DE000595A206E6965646F6B6C61646E612E2038
:103DF00050726177792070727A65646E692070758F
:103E00006E6B74207A62797420777973756E696548
:103E1000747920646F2070727A6F64752E0043612C
:103E20006C696272617A696F6E2058595A20636FAB
:103E30006D70726F6D65746964612E2050756E745B
:103E40006F2064656C616E7465726F206465726565
:103E500063686F206E6F20616C63616E7A61626C63
:103E6000652E0043616C696272617A696F6E6520CC
:103E700058595A20636F6D70726F6D657373612E40
:103E80002050756E746F20616E746572696F726513
:103E90002064657374726F206E6F6E207261676745
:103EA00069756E676962696C652E004B616C696249
:103EB000726163652058595A206E65707265736E21
:103EC000612E20507261767920707265646E69206F
:103ED000626F64206D6F63207670726564752E006A
:103EE00058595A2063616C6962726174696F6E20FF
:103EF000636F6D70726F6D697365642E20526967B0
:103F000068742066726F6E742063616C696272619E
:103F100074696F6E20706F696E74206E6F7420729A
:103F20006561636861626C652E0058595A2D4B615A
:103F30006C696272696572756E6720756E67656E11
:103F400061752E20566F7264657265204B616C69D5
:103F5000627269657270756E6B74652073696E64E8
:103F6000207A75207765697420766F726E652E00F1
:103F70004B616C6962722E2058595A206E696564D3
:103F80006F6B6C61646E612E2050727A65646E692D
:103F9000652070756E6B7479206B616C6962722E2E
:103FA000205A627974207779732E20646F207072A2
:103FB0007A6F64752E0043616C696272617A696F11
:103FC0006E2058595A20636F6D70726F6D657469F9
:103FD00064612E2050756E746F2064656C616E7420
:103FE00065726F73206E6F20616C63616E7A6162BF
:103FF0006C65732E0043616C696272617A696F6EE1
:10400000652058595A20636F6D70726F6D657373B8
:10401000612E2050756E746920616E746572696FCF
:104020007269206E6F6E207261676769756E67696D
:1040300062696C692E004B616C6962726163652014
:1040400058595A206E65707265736E612E205072D9
:1040500065646E69206B616C69627261636E692070
:10406000626F6479206D6F63207670726564752E5F
:104070000058595A2063616C6962726174696F6E8D
:1040800020636F6D70726F6D697365642E20467268
:104090006F6E742063616C6962726174696F6E2007
:1040A000706F696E7473206E6F74207265616368DF
:1040B00061626C652E0058595A2D4B616C696272B1
:1040C000696572756E67206665686C67657363689D
:1040D0006C6167656E2E204C696E6B657220766F21
:1040E000726465726572204B616C69627269657297
:1040F00070756E6B7420697374207A7520776569AA
:104100007420766F726E652E004B616C6962722E40
:104110002058595A206E69657564616E612E204C75
:104120006577792070727A65646E692070756E6B40
:1041300074207A62797420646F2070727A6F64756B
:104140002E205779726F776E6163206472756B6190
:10415000726B652E0043616C6962726163696F6E98
:104160002058595A2066616C6C61642E2050756E1F
:10417000746F2064656C616E7465726F20697A710A
:1041800075696572646F206E6F20616C63616E7A11
:1041900061626C652E0043616C696272617A696F5D
:1041A0006E652058595A2066616C6C6974612E20C6
:1041B00050756E746F20616E746572696F726520E0
:1041C00073696E697374726F206E6F6E20726167AF
:1041D0006769756E676962696C652E004B616C6911
:1041E00062726163652058595A2073656C68616C0E
:1041F000612E204C65767920707265646E6920624C
:104200006F64206D6F63207670726564752E205325
:10421000726F766E656A7465207469736B61726E15
:10422000752E0058595A2063616C69627261746915
:104230006F6E206661696C65642E204C6566742023
:1042400066726F6E742063616C6962726174696F0B
:104250006E20706F696E74206E6F7420726561637A
:104260006861626C652E0058595A2D4B616C696209
:1042700072696572756E67206665686C67657363E1
:10428000686C6167656E2E20526563687465722084
:10429000766F726465726572204B616C69627269D7
:1042A000657270756E6B7420697374207A752077EF
:1042B00065697420766F726E652E004B616C696261
:1042C000722E2058595A206E69657564616E612E90
:1042D0002050726177792070727A65646E692070FF
:1042E000756E6B74207A62797420646F2070727AB4
:1042F0006F64752E205779726F776E6163206472D8
:10430000756B61726B652E0043616C6962726163EB
:10431000696F6E2058595A2066616C6C61642E205A
:1043200050756E746F2064656C616E7465726F2079
:104330006465726563686F206E6F20616C63616E87
:104340007A61626C652E0043616C696272617A69A0
:104350006F6E652058595A2066616C6C6974612EC5
:104360002050756E746F20616E746572696F72652E
:104370002064657374726F206E6F6E207261676760
:1043800069756E676962696C652E004B616C696264
:10439000726163652058595A2073656C68616C615D
:1043A0002E20507261767920707265646E69206289
:1043B0006F64206D6F63207670726564752E205374
:1043C000726F766E656A7465207469736B61726E64
:1043D000752E0058595A2063616C69627261746964
:1043E0006F6E206661696C65642E2052696768741F
:1043F0002066726F6E742063616C696272617469A9
:104400006F6E20706F696E74206E6F7420726561BC
:10441000636861626C652E0058595A2D4B616C6956
:104420006272696572756E67206665686C67657330
:1044300063686C6167656E2E20566F726465726585
:10444000204B616C69627269657270756E6B746520
:104450002073696E64207A75207765697420766FA1
:10446000726E652E004B616C6962722E2058595A2B
:10447000206E69657564616E612E2050727A656484
:104480002E2070756E6B7479206B616C6962722E70
:10449000207A62797420646F2070727A6F64752E4E
:1044A000205779726F776E6163206472756B6172E9
:1044B0006B652E0043616C6962726163696F6E2087
:1044C00058595A2066616C6C61642E2050756E7468
:1044D0006F2064656C616E7465726F73206E6F20FF
:1044E000616C63616E7A61626C65732E0043616C0E
:1044F000696272617A696F6E652058595A206661E7
:104500006C6C6974612E2050756E746920616E74D4
:104510006572696F7269206E6F6E2072616767697C
:10452000756E676962696C692E004B616C696272B5
:104530006163652058595A2073656C68616C612EFF
:1045400020507265646E69206B616C696272616390
:104550006E6920626F6479206D6F6320767072657A
:1045600064752E2053726F766E656A746520746967
:10457000736B61726E752E0058595A2063616C69B5
:1045800062726174696F6E206661696C65642E2069
:1045900046726F6E742063616C6962726174696FD8
:1045A0006E20706F696E7473206E6F742072656117
:1045B000636861626C652E0058595A2D4B616C69B5
:1045C0006272696572756E67206665686C6765738F
:1045D00063686C6167656E2E204269747465207330
:1045E00063686175656E2053696520696E2064613A
:1045F000732048616E64627563682E004B616C695C
:10460000627261636A612058595A206E6965706FE1
:10461000776965647A696F6E612E20537072617775
:10462000647A6963207720696E737472756B636A4C
:10463000692E0043616C6962726163696F6E205814
:10464000595A2066616C6C6164612E20436F6E73F1
:10465000756C74617220656C206D616E75616C2083
:10466000706F72206661766F722E0043616C6962B2
:1046700072617A696F6E652058595A2066616C6C58
:104680006974612E205369207072656761206469C6
:1046900020636F6E73756C7461726520696C206D38
:1046A000616E75616C652E004B616C69627261634D
:1046B000652058595A2073656C68616C612E204ED4
:1046C00061686C65646E65746520646F206D616EF1
:1046D00075616C752E0058595A2063616C6962725D
:1046E0006174696F6E206661696C65642E20506C20
:1046F0006561736520636F6E73756C742074686593
:10470000206D616E75616C2E0058595A2D4B616C8D
:10471000696272696572756E67206665686C676547
:104720007363686C6167656E2E204265642D4B6112
:104730006C69627269657270756E6B74206E696304
:10474000687420676566756E64656E2E004B616CDB
:104750006962722E2058595A206E69657564616EBF
:10476000612E204B616C6962726163796A6E792097
:1047700070756E6B7420706F646B6C61646B692014
:104780006E69657A6E616C657A696F6E792E004329
:10479000616C6962726163696F6E2058595A206654
:1047A000616C6C6164612E2050756E746F7320644F
:1047B000652063616C6962726163696F6E20656E0A
:1047C000206C612063616D61206E6F20656E636F88
:1047D0006E747261646F732E0043616C6962726102
:1047E0007A696F6E652058595A2066616C6C6974DD
:1047F000612E20496C2070756E746F20646920638F
:10480000616C696272617A696F6E652073756C2084
:104810006C6574746F206E6F6E20652720737461F1
:10482000746F2074726F7661746F2E004B616C69C7
:1048300062726163652058595A2073656C68616CB7
:10484000612E204B616C69627261636E6920626FD8
:104850006420706F646C6F7A6B79206E656E616C2A
:10486000657A656E2E0058595A2063616C696272D0
:104870006174696F6E206661696C65642E204265A3
:10488000642063616C6962726174696F6E20706F1D
:10489000696E7420776173206E6F7420666F756E19
:1048A000642E0020766F6E203400207A20340020A1
:1048B0006465203400207375203400207A20340091
:1048C000206F6620340053756368656E204265640E
:1048D000204B616C69627269657270756E6B7400F1
:1048E000537A756B616D2070756E6B7475206B619A
:1048F0006C6962726163796A6E65676F20706F645C
:104900006B6C61646B690042757363616E646F20E8
:1049100063616D612070756E746F206465206361E2
:104920006C6962726163696F6E005269636572637C
:10493000612064656C206C6574746F2070756E7492
:104940006F2064692063616C696272617A2E00482D
:104950006C6564616D206B616C69627261636E6924
:1049600020626F6420706F646C6F7A6B790053659E
:1049700061726368696E67206265642063616C6957
:1049800062726174696F6E20706F696E74004C653D
:1049900067656E2065696E20426C61747420506199
:1049A0007069657220756E74657220646965204453
:1049B00075657365207761656872656E64206465EE
:1049C00072204B616C696272696572756E672064F2
:1049D00065722065727374656E20342050756E6B3D
:1049E00074652E2057656E6E206469652044756578
:1049F0007365206461732050617069657220656918
:104A00006E6B6C656D6D742C20447275636B657292
:104A100020736F666F727420617573736368616C65
:104A200074656E00556D69657363206B6172746B9C
:104A3000652070617069657275206E6120706F64A9
:104A40006B6C6164636520692074727A796D616A48
:104A500020706F64206479737A6120706F64637A68
:104A6000617320706F6D696172752070696572770E
:104A7000737A79636820342070756E6B746F772E4B
:104A8000204A65736C69206479737A61207A616861
:104A900061637A79206F207061706965722C20776C
:104AA000796C61637A206472756B61726B652E003C
:104AB000436F6C6F63617220756E6120686F6A610D
:104AC00020646520706170656C20736F6272652070
:104AD0006C612073757065726669636965206465D1
:104AE00020696D70726573696F6E20647572616E96
:104AF0007465206C612063616C6962726163696FC7
:104B00006E206465206C6F73207072696D65726FC2
:104B10007320342070756E746F732E205369206C6F
:104B20006120626F7175696C6C61206D7565766569
:104B300020656C20706170656C2C2061706167610C
:104B40007220696D707265736F726120696E6D6538
:104B500064696174616D656E74652E00506F727268
:104B60006520756E20666F676C696F20736F747453
:104B70006F206C277567656C6C6F20647572616E51
:104B80007465206C612063616C696272617A696F1F
:104B90006E6520646569207072696D6920342070CB
:104BA000756E74692E20496E206361736F206C27C7
:104BB0007567656C6C6F206D756F766120696C2010
:104BC000666F676C696F20737065676E65726520CC
:104BD00070726F6E74616D656E7465206C612073A8
:104BE00074616D70616E74652E00556D69737465C6
:104BF0007465206C69737420706170697275206EC1
:104C00006120706F646C6F7A6B75206120756472BF
:104C10007A756A7465206A656A20706F64207472A0
:104C200079736B6F7520626568656D206D6572655F
:104C30006E69207072766E696368203420626F64DA
:104C4000752E20506F6B756420747279736B6120C0
:104C50007A6163687974692070617069722C20765A
:104C600079706E657465207469736B61726E752EF0
:104C700000506C6163652061207368656574206F06
:104C80006620706170657220756E6465722074684C
:104C900065206E6F7A7A6C6520647572696E672024
:104CA0007468652063616C6962726174696F6E20FB
:104CB0006F66206669727374203420706F696E7439
:104CC000732E20496620746865206E6F7A7A6C6551
:104CD0002063617463686573207468652070617017
:104CE00065722C20706F776572206F66662074681D
:104CF00065207072696E74657220696D6D65646996
:104D00006174656C792E009A2F742F4D2F252F0119
:104D10002FE42E0931BD30883050301130C12F3989
:104D200033E13273320E32AB31433186353035C424
:104D300034613400349A33D036A83670363E360F9C
:104D400036E5355920736561726368696E67207254
:104D50006164697573206869676865722074686149
:104D60006E20585F4D41582E20436C616D70696E06
:104D7000672077617320646F6E652E00592073651C
:104D800061726368696E6720726164697573206C13
:104D90006F776572207468616E20595F4D494E2EA1
:104DA00020436C616D70696E672077617320646F5A
:104DB0006E652E005820736561726368696E6720A6
:104DC00072616469757320686967686572207468C8
:104DD000616E20585F4D41582E20436C616D7069A3
:104DE0006E672077617320646F6E652E00582073A4
:104DF0006561726368696E672072616469757320AA
:104E00006C6F776572207468616E20585F4D494EF3
:104E10002E20436C616D70696E672077617320642A
:104E20006F6E652E00536176696E6720626564203F
:104E300063616C6962726174696F6E207665637418
:104E40006F727320746F20454550524F4D0050656E
:104E50007270656E646963756C6172697479005A09
:104E600065726F20706F696E7420636F7272656314
:104E700074696F6E3A005920766563746F72206CA6
:104E8000656E6774683A005820766563746F7220A7
:104E90006C656E6774683A00203C20005741524EA2
:104EA000494E473A2046726F6E7420706F696E7477
:104EB000206E6F7420726561636861626C652E207C
:104EC0005920636F6F7264696E6174653A00007097
:104ED000745B315D3A0070745B305D3A00004D6583
:104EE0006173757265643A000063757272656E7401
:104EF0005F706F736974696F6E5B5A5F4158495395
:104F00005D3A000063757272656E745F706F7369ED
:104F100074696F6E5B595F415849535D3A00006395
:104F2000757272656E745F706F736974696F6E5BB2
:104F3000585F415849535D3A0000009E42FCFFFF14
:104F4000BF00001F430000C04200009E420000421C
:104F500043000080BF0000C042417420592D34003E
:104F6000417420593000213718370A37FD36F3369F
:104F7000213700636E74725B315D3A0000636E74BA
:104F8000725B305D3A00007665635F795B315D3A54
:104F900000007665635F795B305D3A00007665639B
:104FA0005F785B315D3A00007665635F785B305D0A
:104FB0003A00566563746F72733A200049746572E3
:104FC0006174696F6E3A200095384E380238BB37ED
:104FD00071372C37253AE839A63951391139D63885
:104FE000A33B6B3B273BE93AB13A683A3E3D0A3D69
:104FF000C03C793C303CE43BE03EAB3E633E1E3E71
:10500000D43D873D71403640F53FB63F703F2A3F63
:105010002342DC41964155410941B640D3438B437D
:1050200047430843BB42674278452A45ED44B444B0
:1050300065441844D646A8466B463346FC45B845F9
:1050400066482C48D9478F474D470947C048BB4859
:10505000B548AF48AA48A3486E494F492A4907496D
:10506000E048C648714CEA4B5C4BB04A244A8E4932
:105070007C3C3E5E2B3D3F2F5B5D3B2C2A225C003F
:10508000496E76616C69642062656420636F727238
:10509000656374696F6E206D61747269782E205239
:1050A0006573657474696E6720746F206964656EDA
:1050B000746974792E00496E76616C69642062654A
:1050C0006420636F7272656374696F6E206D6174C2
:1050D0007269782E20582F5920617865732061728B
:1050E00065206661722066726F6D206265696E6709
:1050F0002070657270656E646963756C61722E00F4
:10510000496E76616C69642062656420636F7272B7
:10511000656374696F6E206D61747269782E2053B7
:1051200068696674206F7574206F662072616E679F
:10513000652E005A65726F20706F696E7420636F00
:105140007272656374696F6E3A00496E76616C695C
:10515000642062656420636F7272656374696F6E48
:10516000206D61747269782E204C656E67746820BA
:105170006F6620746865205920766563746F7220AD
:105180006F7574206F662072616E67652E005920FE
:10519000766563746F72206C656E6774683A004957
:1051A0006E76616C69642062656420636F727265FB
:1051B0006374696F6E206D61747269782E204C651E
:1051C0006E677468206F6620746865205820766565
:1051D00063746F72206F7574206F662072616E67E2
:1051E000652E005820766563746F72206C656E675B
:1051F00074683A00556E646566696E656420626520
:105200006420636F7272656374696F6E206D617480
:105210007269782E00416B7475656C6C657300540F
:10522000796C6B6F20616B7475616C6E65004163A6
:105230007475616C0041747475616C6500506F75B4
:105240007A6520616B7475616C6E6900437572726A
:10525000656E74004265696D20447275636B2062EF
:10526000656E75747A746500557A7974652070720C
:105270007A79206472756B7500557361646F20656F
:105280006E20696D70726573696F6E00557361741D
:1052900069206E656C6C61207374616D7061005083
:1052A0006F757A69746520626568656D20746973CD
:1052B0006B75005573656420647572696E67207044
:1052C00072696E7400416C6C650057737A797374FF
:1052D0006B6F00546F646F7300547574746900567B
:1052E000736500416C6C00504944204B616C6962ED
:1052F0002E20666572746967004B616C2E205049E0
:1053000044207A616B6F6E637A6F6E610043616CEB
:105310002E20504944207465726D696E616461008D
:1053200043616C2E2050494420636F6D706C65742E
:105330006100504944206B616C2E20756B6F6E6369
:10534000656E61005049442063616C2E2066696E71
:10535000697368656400504944204B616C69622E32
:10536000004B616C2E205049440043616C2E20504C
:10537000494420202020202020202020200043619C
:105380006C2E2050494400504944206B616C2E2003
:10539000202020202020202020200050494420636D
:1053A000616C2E202020202020202020202000445E
:1053B0007275636B20776569746572676568656E81
:1053C00000577A6E617769616E6965206472756BEA
:1053D00075005265616E7564617220696D707265E9
:1053E00073696F6E005374616D706120696E207215
:1053F000697072657361004F626E6F766F76616E71
:1054000069207469736B7500526573756D696E6799
:10541000207072696E7400447275636B20706175E0
:105420007369657274004472756B207A6174727A64
:10543000796D616E7900496D70726573696F6E2068
:10544000656E207061757361005374616D706120C9
:10545000696E207061757361005469736B20706FA1
:105460007A6173746176656E005072696E74207033
:105470006175736564004C523D5235522E521F5275
:105480001552B3529F528C52795268525452E35281
:10549000DF52D952D352CA52C5524D353030004432
:1054A00053325320530D53F952E7529B5387537E87
:1054B000536A53615356534731205A313520463190
:1054C00035303000473931004731205835302059C8
:1054D00031393020453020463730303000473930C0
:1054E000004D373032004D3730322043004D3730D9
:1054F000322055004D373032004731205A313520A7
:105500004631353030004739310047312058353089
:105510002059313930204530204637303030004D69
:10552000383300473930004D3834004D31303420A5
:105530005330004D38340047312058313020593134
:105540003830204634303030004731205A31302056
:1055500046313330302E303030004D31343020532E
:1055600030004D313034205330004D31303700475A
:10557000312045202D20302E303735303020463236
:105580003130302E30303030300047312058353017
:10559000205935352045332E3632373733004731E1
:1055A0002058323030205935352045302E343933AB
:1055B00038360047312058323030205937352045B1
:1055C000332E3632373733004731205835302059A3
:1055D00037352045302E343933383600473120589E
:1055E0003530205939352045332E363237373300A0
:1055F00047312058323030205939352045302E344B
:105600003933383600473120583230302059313163
:10561000352045332E363237373300473120583561
:105620003020593131352045302E34393338360069
:1056300047312058353020593133352045332E3607
:105640003237373300473120583230302059313328
:10565000352045302E363631373400473120583228
:10566000303020593135352045322E3632373733F8
:1056700000473120583130302059313535204532FE
:105680000047312058373520593135352045322EE5
:105690003500473120463130383000473120583509
:1056A0003020593135350047312046343030300014
:1056B0004D323034205331303030004731205A30B1
:1056C0002E3135302046373230302E3030300047E2
:1056D000312045202D20312E3530303030204632DB
:1056E0003130302E3030303030004D3833004739D3
:1056F0003000473231004739322045302E300047E4
:105700003120583130302E30204531322E35202096
:1057100046313030302E30004731205836302E3070
:105720002045392E30202046313030302E30004791
:1057300039322045302E30004732380047383700A4
:105740004D313137204669727374206C617965720E
:105750002063616C2E004D313039205332313000DE
:105760004D31393020533535004D313430205335EB
:1057700035004D3130342053323130004D31303727
:10578000000854F753E553D253C153AF5347393050
:10579000004731204531004D383200473120453136
:1057A000004D3833004D31303620532564004D32E2
:1057B00032302053256400695459544954365426D4
:1057C0005417544142474542524F4348454E2E20BC
:1057D0000050415241444120444520454D455247E7
:1057E000454E43494100494E2054494C542E004BEC
:1057F000494C4C45442E20005072696E74657220ED
:1058000068616C7465642E206B696C6C2829206358
:10581000616C6C65642100474553544F5050542EC1
:10582000200050415241444100415252455354419D
:10583000544F2E0053544F505045442E2000507268
:10584000696E7465722073746F707065642064751E
:105850006520746F206572726F72732E20466978AE
:1058600020746865206572726F7220616E642075A5
:105870007365204D39393920746F207265737461F6
:1058800072742E202854656D70657261747572652E
:105890002069732072657365742E205365742069C6
:1058A00074206166746572207265737461727469C4
:1058B0006E6729004D32323120496E76616C696421
:1058C00020657874727564657220004D323138201D
:1058D000496E76616C69642065787472756465726E
:1058E00020004D31303920496E76616C6964206545
:1058F0007874727564657220004D31303520496EC0
:1059000076616C69642065787472756465722000D4
:105910004D31303420496E76616C6964206578744D
:1059200072756465722000EF57EF57E657D157EF55
:1059300057C357F8573458345829582258345817F1
:10594000583E58B458CB58E258F95810595A206C60
:105950006976652061646A757374206F7574206F51
:10596000662072616E67652E2053657474696E6778
:1059700020746F20302E20436C69636B20746F207D
:10598000636F6E74696E75652E005A206C6976655A
:105990002061646A757374206F7574206F6620725D
:1059A000616E67652E2053657474696E6720746F2D
:1059B00020300020423A0020453A00543A006275F7
:1059C00073793A2070617573656420666F7220691F
:1059D0006E70757400627573793A207061757365C5
:1059E0006420666F72207573657200627573793A10
:1059F0002070726F63657373696E670000005443B3
:105A00000000664300005243000000C00000A0C038
:105A10009A99193E000000C00000A0C09A99193E52
:105A20000000A0400000A0400000004000005643DD
:105A300000006B439AD95143FFFFFF000021104241
:105A40002063308440A550C660E770088129914AE0
:105A5000A16BB18CC1ADD1CEE1EFF1311210027367
:105A6000325222B5529442F772D662399318837B30
:105A7000B35AA3BDD39CC3FFF3DEE36224433420B7
:105A8000040114E664C774A44485546AA54BB52880
:105A9000850995EEE5CFF5ACC58DD5533672261147
:105AA000163006D776F6669556B4465BB77AA719D0
:105AB000973887DFF7FEE79DD7BCC7C448E558860F
:105AC00068A7784008611802282338CCC9EDD98E20
:105AD000E9AFF9488969990AA92BB9F55AD44AB7A7
